:020000040800F2
:10000000280400209D010008730800081508000856
:100010007108000825070008490E000800000000CC
:10002000000000000000000000000000410C00087B
:10003000270700080000000075080008FD0C0008F4
:10004000B7010008B7010008B7010008B7010008B0
:10005000B7010008B7010008B7010008B7010008A0
:10006000B7010008B7010008B7010008B701000890
:10007000B7010008B7010008B7010008B701000880
:10008000B7010008B7010008B7010008B701000870
:10009000B7010008B7010008B7010008B701000860
:1000A000B7010008B7010008B7010008B701000850
:1000B000B7010008B7010008B7010008B701000840
:1000C000B7010008B7010008B7010008B701000830
:1000D000B7010008B7010008B7010008B701000820
:1000E000B7010008B7010008B7010008B701000810
:1000F000B7010008B7010008B7010008B701000800
:10010000B7010008B7010008B7010008B7010008EF
:10011000B7010008B7010008B7010008B7010008DF
:10012000B7010008B7010008B7010008B7010008CF
:10013000B7010008B7010008B7010008B7010008BF
:10014000B7010008B7010008B7010008B7010008AF
:10015000B7010008B7010008B7010008B70100089F
:10016000B7010008B7010008B7010008B70100088F
:10017000B7010008B7010008B7010008B70100087F
:10018000B7010008B7010008DFF80CD000F02AFA28
:10019000004800471118000828040020064880473E
:1001A00006480047FEE7FEE7FEE7FEE7FEE7FEE75C
:1001B000FEE7FEE7FEE7FEE7010D00088901000803
:1001C00000F0004230F000400AD0C10D01F560712E
:1001D000C0F3160042EA0151C208400711437047BC
:1001E00000200146704730B50B4601460020202212
:1001F000012409E021FA02F59D4205D303FA02F534
:10020000491B04FA02F52844151EA2F10102F1DC93
:1002100030BD2DE9F05F0546002092469B4688469A
:100220000646814640241BE0284641464746224672
:1002300000F0F9F953465A46C01A914110D31146BD
:100240001846224600F0E0F92D1A67EB01084F46E8
:1002500022460120002100F0D7F917EB00094E419A
:10026000201EA4F10104DFDC484631462A464346FD
:10027000BDE8F09F2DE9FE4F804681EA0300C00FE4
:100280000C46009021F0004123F00045B8EB02003D
:10029000A94105D24046214690461C460B460246DF
:1002A00023F00040104347D0270DC7F30A00C3F3E3
:1002B0000A510290401A019040286BDAC3F31300F0
:1002C00040F4801B0098924620B10023D2EB030A31
:1002D00063EB0B0B01985946C0F14002504600F009
:1002E00093F906460D4650465946019A00F0ABF97F
:1002F00010EB08006141002487EA115284EAE77399
:100300001A4340D0009A62B3019A012A4FEA075279
:1003100015DC001B61EB02014FF0004202EA0752BC
:10032000CDE90042001C41F5801132462B4600F019
:10033000ABF903B0BDE8F08F40462146F9E7001B5A
:1003400061EB0201001C41F5801300185B4120188D
:10035000A2F5001747EB030140EAD570B6196D41CD
:1003600011E06D084FEA360645EAC0754FEA0752BC
:10037000001B61EB0201001C41F5801149084FEAA6
:1003800030000019514132462B4603B0BDE8F04F12
:1003900000F06BB90098012240000023D0EB02026C
:1003A00063EBE073009821464FEAE074B8EB00007D
:1003B00061EB0401E9E783F000435BE781F0004172
:1003C00058E72DE9FE4F81EA030404F0004421F0D0
:1003D000004100944FF0000B23F0004350EA010469
:1003E0005ED052EA03045BD0C3F30A54C1F30A554A
:1003F0002C44A4F2F3340194A0FB0254C1F3130182
:1004000041F48011C3F3130343F4801301FB02444E
:1004100000FB034E840A970A44EA815447EA835753
:10042000A4FB076802958D0A05FB07854FEA932C0C
:1004300004FB0C542705029D4FEA065847EA16377D
:10044000B5EB08056EEB070C870E920E47EA811795
:1004500042EA8312A7FB0201B6EB0B0164EB000436
:100460002B0D43EA0C335E1844EB1C50DA46514620
:10047000E7FB0201C5F313044FEA0B3343EA1453BD
:100480004FEA0432019C43EA0603A4F10C040294EF
:10049000009CCDE900B400F0F7F803B0BDE8F08FA0
:1004A00000200146F9E72DE9F04D81EA030404F04C
:1004B000004B21F0004514464FF0000A23F00041A4
:1004C00050EA050220D054EA01021DD0C5F30A57B4
:1004D0000246C5F31303C1F31300C1F30A5640F4F7
:1004E000801543F48013A7EB0608101BD64608F2CC
:1004F000FD3873EB050002D308F1010801E0921802
:100500005B41B8F1000F03DA00200146BDE8F08D31
:1005100000204FF48011064684460EE0171B73EB53
:10052000050705D3121B63EB050306434CEA010CD8
:1005300049084FEA300092185B4150EA0107EDD1BB
:1005400052EA030012D082EA040083EA050108435C
:1005500005D0101BAB4106D20122002306E0002289
:100560004FF0004302E06FF0010253101AEB060057
:100570004CEB085110EB0A0041EB0B01BDE8F04DCC
:1005800000F073B8C1F30A52C1F3130140F2FF3314
:1005900041F480119A4202DA00200146704740F28D
:1005A00033439A42A2F2334202DC524200F03BB89B
:1005B00000F02AB830B5041E71F1000404DB4FF0DE
:1005C0000044404264EB0101141E73F1000405DB9A
:1005D0001C464FF00043524263EB0403994208BFAC
:1005E000904230BD064C074D06E0E06840F0010344
:1005F00094E8070098471034AC42F6D3FFF7C8FDE3
:10060000BC180008DC180008202A04DB203A00FA95
:1006100002F1002070479140C2F1200320FA03F359
:10062000194390407047202A04DB203A21FA02F057
:100630000021704721FA02F3D040C2F1200291401C
:10064000084319467047202A06DBCB17203A41FAA7
:1006500002F043EAE07306E041FA02F3D040C2F14F
:100660002002914008431946704710B5141E73F1DB
:10067000000408DA401C41F1000192185B411A4362
:1006800001D120F0010010BD2DE9F04D92469B46AE
:1006900011B1B1FA81F202E0B0FA80F22032904654
:1006A000FFF7B2FF04460F4640EA0A0041EA0B0199
:1006B00053465A46084313D0114653EA010019D055
:1006C000C8F140025046FFF7AEFF05460E465046C1
:1006D00059464246FFF798FF084305D0012004E041
:1006E00020463946BDE8F08D0020054346EAE07615
:1006F0002C4337430A986305E40AA0EB0800002264
:10070000FD0A44EA47540A3002D500200146E9E7D1
:10071000010510196941DDE9084500196941BDE885
:10072000F04DA2E7FEE7704770B50F4D4021284617
:1007300000F06CF8052000F039FA0C4C4FF6FF7011
:100740002060FF2000F032FAC00707D02068401E6A
:100750002060401CF5D1032001F03AF82846BDE89E
:100760007040402100F054B80018024020000020E2
:100770002DE9F041002201274FF0030C07FA02F5A2
:100780000B682B40AB422CD1066853000CFA03F4E3
:10079000A64306600E79D0F800809E4046EA08061F
:1007A00006600E79012E01D0022E12D18668A64372
:1007B00086604E79D0F808809E4046EA080686603A
:1007C0004668AE43466045688E799640B6B235437A
:1007D0004560C568A543C560CC799C40C3681C438F
:1007E000C460521C102AC9D3BDE8F08110B54B0774
:1007F000DB0E9A40C90800EB8100016A0F249C407F
:10080000A1430162016A1143016210BD4183704737
:1008100001837047FEE700002DE9FC410121202003
:1008200000F02AF84024009401208DF804000021F3
:100830008DF806108DF807008DF805100B4F6946EE
:100840003846FFF795FF8026009669463846FFF741
:100850008FFFA500009569463846FFF789FF0348DA
:100860001830048006800580BDE8FC810014024039
:10087000FEE7704770470000054A002903D0116861
:100880000143116070471168814311607047000097
:1008900030380240054A002903D011680143116035
:1008A000704711688143116070470000443802406E
:1008B00070B5244B196801F00C01234C00291ED09F
:1008C000224E04291DD008291DD00460196801F0AA
:1008D000F00109091E4A545C0168E14041601C684E
:1008E00004F4E054A40A145D21FA04F484601B6843
:1008F00003F460435B0BD25CD140C16070BD046007
:10090000E4E70660E2E70F4A121F1168C1F3805561
:10091000116801F03F0135B1B6FBF1F11468C4F381
:100920008814614305E0B4FBF1F11468C4F3881442
:1009300061431268C2F30142521C5200B1FBF2F152
:100940000160C3E7083802400024F40040787D01CC
:1009500000000020002904D0018841F040010180FE
:100960007047018821F040010180704770B504464E
:1009700000F054F90D4D40212846FFF747FF202095
:1009800000F014F9C4F3074000F010F9C4F3072095
:1009900000F00CF9E0B200F009F940212846FFF719
:1009A00037FFBDE87040FFF7BFBE000000180240EF
:1009B00010B500F069F8BDE8104000F0CDB80000B7
:1009C0002DE9F04105460E4617460024DFF8608009
:1009D00023E014F0FF0F1CD10CB105F58075402108
:1009E0004046FFF715FFFFF79FFE00F017F9402183
:1009F0004046FFF70BFF022000F0D8F8C5F3074090
:100A000000F0D4F8C5F3072000F0D0F8E8B200F009
:100A1000CDF8305D00F0CAF8641CBC42D9DB40213F
:100A20004046FFF7F5FEBDE8F041FFF77DBE000050
:100A3000001802402DE9F04104460D461646114FBC
:100A400040213846FFF7E2FE032000F0AFF8C4F380
:100A5000074000F0ABF8C4F3072000F0A7F8E0B2BD
:100A600000F0A4F8002404E0FF2000F09FF82855CF
:100A7000641CB442F8DB3846BDE8F0414021FFF782
:100A8000C7BE0000001802401CB501214220FFF73C
:100A9000F3FE1B4C052203212046FFF7A7FE05228B
:100AA00004212046FFF7A2FE052211462046FFF74B
:100AB0009DFE0821009102218DF804108DF805108B
:100AC00000218DF806108DF8071069462046FFF7C3
:100AD0004FFE1021009169462046FFF749FE202174
:100AE000009169462046FFF743FE40200090012018
:100AF0008DF8040069460348FFF73AFE1CBD00006C
:100B000000040240001802400246002012890A42F6
:100B100000D001207047808970478181704730B5CF
:100B2000028802F441530A884C88CD8822438C887D
:100B30002C4322430C8922434C8922438C89224333
:100B4000CC8922431A430280828B22F40062828382
:100B5000098A018230BD000010B586B0012108036A
:100B6000FFF798FE0020ADF81000ADF80A00ADF8D0
:100B70000C004FF48271ADF80610ADF80400ADF82A
:100B80001200ADF80800ADF814004FF40070ADF895
:100B90000E00054C01A92046FFF7C1FF01212046A8
:100BA000FFF7D8FE06B010BD003001402DE9F0413E
:100BB0000746184C4FF6FF752560174E03E0206876
:100BC000401E206058B102213046FFF79DFF0028EB
:100BD000F5D039463046FFF7A0FF256008E0BDE8B4
:100BE000F041012000F0F4BD2068401E206058B1A3
:100BF00001213046FFF788FF0028F5D03046FFF787
:100C00008AFFC0B2BDE8F081BDE8F041022000F0EB
:100C1000DFBD0000200000200030014010B5074C6F
:100C200040212046FFF7F2FD0620FFF7BFFF2046D8
:100C3000BDE810404021FFF7EBBD00000018024066
:100C4000704700000CB50022019200922749086805
:100C500040F4803008604FF4A043086800F400308E
:100C600000900198401C0190009810B9019898429A
:100C7000F3D10868800302D50120009000E00092C3
:100C80000098012831D119484030026842F0805262
:100C900002601748026842F440420260134808307C
:100CA00002680260026842F400420260026842F494
:100CB000A0520260021F0F4B13600A6842F080725C
:100CC0000A600A689201FCD50B4A40F20571116076
:100CD000016821F003010160016841F00201016037
:100CE0000168C1F381010229FAD10CBD003802402C
:100CF0000070004019544007003C0240704700005B
:100D000010B51248016841F4700101601048016893
:100D100041F0010101600E4A0021083211600268B1
:100D20000C4B1A400260031D0B4A1A60026822F441
:100D30008022026006480C300160FFF783FF034900
:100D40004FF000608039086010BD000088ED00E0C1
:100D500000380240FFFFF6FE10300024002904D0C6
:100D6000818941F4005181817047818921F40051CA
:100D7000818170470246002012880A4200D001207B
:100D8000704700007FB504460D46208A20F440518C
:100D9000E88808432082A08941F20C618843A98831
:100DA0002A8911436A8902431143A181A08A20F450
:100DB0004071A8890843A0826846FFF779FD1E4864
:100DC000844202D01D48844201D1039800E0029879
:100DD000A189090408D500EBC00101EB00102968C6
:100DE0004900B0FBF1F007E000EBC00101EB00109F
:100DF00029688900B0FBF1F06422B0FBF2F109012F
:100E00000B096FF018056B4300EB8300A3891D04E9
:100E10004FF0320307D503EBC000B0FBF2F000F057
:100E20000700084306E003EB0010B0FBF2F000F00F
:100E30000F00084320817FBD0010014000140140D5
:100E4000C1F3080181807047FEE7000010B586B04D
:100E500001210846FFF710FD4FF4007004900120B7
:100E60008DF8170002208DF815008DF81400194C2C
:100E700004A92046FFF77CFC2115049104A9204613
:100E8000FFF776FC072209212046FFF7AFFC072277
:100E90000A212046FFF7AAFC01211020FFF7FAFCE7
:100EA0004FF4E13000900020ADF80400ADF80600EA
:100EB000ADF80800ADF80C000C20ADF80A00064CA7
:100EC00069462046FFF75EFF01212046FFF746FFF7
:100ED00006B010BD00000240001001400FB4054BE9
:100EE00010B503A9044A029800F0DAF810BC5DF8C6
:100EF00014FB0000ED1700082400002002E008C8E1
:100F0000121F08C1002AFAD170477047002001E083
:100F100001C1121F002AFBD1704700002DE9FF5FBD
:100F200082B00021DDE90430020DDDF840B003435A
:100F300018D044F61050A2F2FF3242431514119813
:100F400001281FD0A5EB0B00401C5FEA000A4FF000
:100F500000064E4FDFF83891B046504615D5CAF11D
:100F6000000413E0119801244AA3012801D16FEA7B
:100F70000B010298119AC0E90031C0E9024206B0A3
:100F8000BDE8F09FCBF10000DFE704460021404AB6
:100F9000491842EB0450CDE9001012E0E00707D0F9
:100FA00032463B4640464946FFF70BFA80468946A3
:100FB00032463B4610461946FFF703FA06460F46EF
:100FC0006410002CEAD1DDE90401DDE90023BAF167
:100FD000000F06DAFFF7F5F942464B46FFF7F1F945
:100FE00005E0FFF760FA42464B46FFF75CFA04461D
:100FF0000E460022284BFFF7DDFA03D84FF0FF30F2
:10100000014607E00022254B20463146FFF732F922
:10101000FFF7B8FA102409E0002C0ADB0A220023AB
:10102000FFF7F7F8039B30321A55641E50EA0102AD
:10103000F2D1641C039AC4F111031444119A012AD9
:1010400003D0012208430DD10AE0084304D0002058
:101050004FF0110B119072E7A3EB0B056D1E0DE025
:101060005B4504DD4FF0000205F1010504E003DA01
:101070004FF00002A5F10105002AECD00298119969
:10108000C0E90231C0E9004579E7000000001440E2
:101090000000F03F300000000000F0430000E03F9F
:1010A0002DE9FF4F95B09B468946064600250FE285
:1010B000252877D100242746F84A0121059400E02D
:1010C000044316F8013F203B01FA03F01042F7D128
:1010D00030782A2811D06FF02F033078A0F1300239
:1010E000092A16D8059A44F0020402EB820203EBA7
:1010F00042021044761C0590EFE759F8042B059244
:10110000002A03DA504244F40054059044F00204EB
:10111000761C30782E2816D116F8010F44F00404FE
:101120002A280DD06FF02F023078A0F13003092B60
:1011300009D807EB870302EB4303C718761CF3E7D4
:1011400059F8047B761C30786C280FD006DC4C28CC
:1011500017D068280DD06A2814D104E0742810D064
:101160007A280FD10DE044F400140AE044F480140E
:1011700001E044F440147278824202D104F58014F4
:10118000761C761C307866280BD013DC582877D074
:1011900009DC002875D04528F6D04628F4D0472829
:1011A0001AD19DE118E0632835D0642879D06528EC
:1011B00012D195E1702873D008DC6728F1D0692836
:1011C0006FD06E280DD06F2806D1B5E073282CD0D3
:1011D000752875D0782874D05A46179990476D1C99
:1011E00075E1C4F30250022809D003280DD0D9F8C4
:1011F000001004280DD00D6009F1040967E1D9F849
:101200000010EA17C1E90052F6E7D9F800100D8086
:10121000F2E70D70F0E719F8041B8DF800100020BC
:101220008DF80100EA46012003E059F804AB4FF0C5
:10123000FF3061074FF0000102D40DE008F1010119
:101240008846B9420FDA8045F8DB1AF80810002901
:10125000F4D108E008F1010188468142FADB1AF86E
:1012600008100029F6D105985B46A0EB0807214637
:101270003846179A00F094FA284400EB080507E076
:101280004DE029E10DE01AF8010B5A4617999047F5
:10129000B8F10108F7D25B4621463846179A13E1A8
:1012A00042E00A220092C4F302524FF0000A022ADE
:1012B00008D059F804CB032A4FEAEC710AD00DE0AC
:1012C00029E02AE009F1070121F00702F2E802C152
:1012D000914609E00FFA8CFC4FEAEC71042A03D125
:1012E0004FFA8CFC4FEAEC71002907DA0A4600211C
:1012F000DCF1000C61EB02012D2202E0220504D595
:101300002B228DF80420012203E0E20701D02022E5
:10131000F7E7904659E00A2102E010220DE0102183
:101320004FF0000A00910BE010224FF0000A44F049
:1013300004040827009203E008224FF0000A0092FC
:10134000C4F30252022A05D059F804CB0021032A23
:1013500008D009E009F1070121F00702F2E802C113
:10136000914605E01FFA8CFC042A01D10CF0FF0C19
:101370004FF00008220728D5702806D0009B83F084
:10138000100353EA0A0305D00EE040228DF8042032
:10139000012208E05CEA010206D030228DF8042028
:1013A0008DF8050002229046009B83F0080353EA63
:1013B0000A030AD15CEA010201D1620705D5302295
:1013C0008DF804204FF001087F1E582804D034A067
:1013D00003900EA802900DE036A0F9E75346604650
:1013E000009AFEF716FF84460398825C0298401E1E
:1013F000029002705CEA0100F0D1029806A9081A76
:1014000000F1200A600702D524F4803400E00127AF
:10141000574502DDA7EB0A0000E0002000EB0A01BF
:10142000009005984144401A0590E00306D45B46BD
:101430002146179A059800F0B3F90544002706E005
:1014400001A85A46C05D179990476D1C7F1C4745FF
:10145000F6DBE0030CD55B462146179A059800F0B1
:101460009FF9054404E030205A46179990476D1CB7
:101470000099481E00900029F5DC08E002980299C6
:101480005A460078491C0291179990476D1CBAF191
:101490000001AAF1010AF1DC65E100000928010060
:1014A00030313233343536373839616263646566DA
:1014B000000000003031323334353637383941429C
:1014C000434445460000000000F058F90544761CEE
:1014D000307800287FF4ECAD19B02846BDE8F08FD5
:1014E000620700D4062709F1070222F0070CFCE886
:1014F0000223E14603F000485FEA080C02D00FF235
:10150000702C0DE05FEA045C02D50FF2682C07E056
:101510005FEAC47C02D00FF2602C01E0AFF2700CE5
:101520004FF0FF3823F00043CDF850C065280CD0B1
:1015300006DC452809D046281DD047283DD13DE08E
:10154000662818D067287ED138E00021112F01DBF2
:10155000112000E0781CCDE9000106A90EA8FFF7D4
:10156000DDFCDDE90F010E9A03910021009207F1E5
:10157000010A04914DE04FF000400097CDE90110C1
:1015800006A90EA8FFF7CAFCDDE90F0203920E9B25
:1015900011990022DDF80CA00093049211B9791C76
:1015A00000EB010AB7EB0A0004D4C0F1FF3007F1E9
:1015B000010A0490AAEB0700019044E0012F00DA31
:1015C00001270021112F01DD112000E03846CDE96F
:1015D000000106A90EA8FFF7A1FCDDE90F010E9A94
:1015E0000391002104910092BA4621070CD403997B
:1015F000514500DA8A46BAF1010F05DD009AAAF1D9
:101600000101515C302908D0B84202DA10F1040F10
:1016100006DA0121CDE9011015E0AAF10101E9E79F
:10162000002805DC049901440491AAEB000102E0C2
:10163000411C514500DD8A460499401A401C019026
:101640004FF000400290200704D40198504501DB80
:10165000CDF8048000208DF84F0002980DF14F075F
:10166000B0F1004F25D02B200E9002984FF00208C9
:1016700000280CDA404202902D200E9007E00A214B
:101680000298FEF7B0FD3031029007F8011DB8F165
:101690000001A8F10108F2DC02980028EFD1791EC0
:1016A0000E980870307800F0200040F0450007F8F0
:1016B000020D12A8C01B00F107081498007800B1B1
:1016C000012000EB0A01019801EBE071059841440B
:1016D000401A401E0590E00306D45B462146179A47
:1016E000059800F05DF805441498007818B15A4642
:1016F000179990476D1CE00324D55B462146179A45
:10170000059800F04DF805441CE00498002807DB1C
:10171000DDE90301884203DD0098405C179901E090
:10172000179930205A469047049805F10105401C4E
:1017300004900198401E019004D12E205A4617991A
:1017400090476D1CBAF10001AAF1010ADDDC05E049
:1017500017F8010B5A46179990476D1CB8F1000114
:10176000A8F10108F4DC5B462146179A0598ABE620
:101770002D0000002B000000200000002DE9F041AA
:10178000044600251E461746880404D405E0394661
:101790002020B0476D1C641EF9D52846BDE8F081B5
:1017A0002DE9F041044600251E469046C80301D5A8
:1017B000302700E02027880404D505E0414638465C
:1017C000B0476D1C641EF9D52846BDE8F0810000C5
:1017D00010B50446214602A0FFF780FB204610BD4D
:1017E0004552524F523A25640A00000070B5044633
:1017F000064DE1B22846FFF723FB80212846FFF77C
:10180000B9FA0028F9D0204670BD00000010014050
:10181000FFF702F8FFF71AFBFFF7CAF80020FFF7FF
:10182000A5F81CA0FFF75AFB04221E490020FFF771
:10183000C7F81C49042208310020FFF7FBF8194CB7
:10184000241FE068FEF7BCFC41EC100B16A053EC23
:10185000102BFFF743FB0020FFF788F80DA0FFF7E0
:101860003DFB04220020A168FFF7AAF804222146CC
:101870000020FFF7DFF821460CA0FFF72FFB0C49F3
:10188000402008800A488021801E01808115018047
:10189000FEE70000B2C1B3FDCDEAB3C92121210AA0
:1018A000000000001400002025660A0025730A00CD
:1018B0001A1402406162636400000000DC18000832
:1018C0000000002028000000FC0E00080419000899
:1018D00028000020000400000C0F00080000000099
:1018E00001020304010203040607080900000000C6
:1018F0000000C03FB4180008000000000000000015
:0419000000000000E3
:040000050800018965
:00000001FF
