:020000040800F2
:10000000000400209D010008BF0200086D020008E6
:10001000BD020008E5010008FD0300080000000023
:10002000000000000000000000000000E1020008E5
:10003000E701000800000000C10200089D0300085D
:10004000B7010008B7010008B7010008B7010008B0
:10005000B7010008B7010008B7010008B7010008A0
:10006000B7010008B7010008B7010008B701000890
:10007000B7010008B7010008B7010008B701000880
:10008000B7010008B7010008B7010008B701000870
:10009000B7010008B7010008B7010008B701000860
:1000A000B7010008B7010008B7010008B701000850
:1000B000B7010008B7010008B7010008B701000840
:1000C000B7010008B7010008B7010008B701000830
:1000D000B7010008B7010008B7010008B701000820
:1000E000B7010008B7010008B7010008B701000810
:1000F000B7010008B7010008B7010008B701000800
:10010000B7010008B7010008B7010008B7010008EF
:10011000B7010008B7010008B7010008B7010008DF
:10012000B7010008B7010008B7010008B7010008CF
:10013000B7010008B7010008B7010008B7010008BF
:10014000B7010008B7010008B7010008B7010008AF
:10015000B7010008B7010008B7010008B70100089F
:10016000B7010008B7010008B7010008B70100088F
:10017000B7010008B7010008B7010008B70100087F
:10018000B7010008B7010008DFF80CD000F018F83C
:100190000048004735040008000400200648804756
:1001A00006480047FEE7FEE7FEE7FEE7FEE7FEE75C
:1001B000FEE7FEE7FEE7FEE7A1030008890100086D
:1001C000064C074D06E0E06840F0010394E80700A4
:1001D00098471034AC42F6D3FFF7DAFFB4040008B6
:1001E000C4040008FEE770472DE9F0410022012712
:1001F0004FF0030C07FA02F50B682B40AB422CD1F1
:10020000066853000CFA03F4A64306600E79D0F892
:1002100000809E4046EA080606600E79012E01D055
:10022000022E12D18668A64386604E79D0F80880E7
:100230009E4046EA080686604668AE4346604568CA
:100240008E799640B6B235434560C568A543C56012
:10025000CC799C40C3681C43C460521C102AC9D38B
:10026000BDE8F0814183704701837047FEE70000DD
:100270001CB50121202000F025F84020009001202D
:100280008DF8040000218DF806108DF805108DF80A
:100290000700094C69462046FFF7A6FF8021009120
:1002A00069462046FFF7A0FFA11500916946204648
:1002B000FFF79AFF1CBD000000140240FEE77047E4
:1002C00070470000054A002903D0116801431160FE
:1002D0007047116881431160704700003038024058
:1002E000704700000CB5002201920092274908686F
:1002F00040F4803008604FF4A043086800F40030F8
:1003000000900198401C0190009810B90198984203
:10031000F3D10868800302D50120009000E000922C
:100320000098012831D119484030026842F08052CB
:1003300002601748026842F44042026013480830E5
:1003400002680260026842F400420260026842F4FD
:10035000A0520260021F0F4B13600A6842F08072C5
:100360000A600A689201FCD50B4A40F205711160DF
:10037000016821F003010160016841F002010160A0
:100380000168C1F381010229FAD10CBD0038024095
:100390000070004019544007003C024070470000C4
:1003A00010B51248016841F47001016010480168FD
:1003B00041F0010101600E4A00210832116002681B
:1003C0000C4B1A400260031D0B4A1A60026822F4AB
:1003D0008022026006480C300160FFF783FF03496A
:1003E0004FF000608039086010BD000088ED00E02B
:1003F00000380240FFFFF6FE10300024FEE702E066
:1004000008C8121F08C1002AFAD17047704700209F
:1004100001E001C1121F002AFBD1704741F288326E
:1004200003E00021491C9142FCDB401E411CF8D135
:1004300070470000FFF71CFF1D4C40212046FFF7CE
:1004400013FF80212046FFF70FFFA61531462046F7
:10045000FFF70AFF41F2883540212046FFF702FFEF
:100460002846FFF7DBFF40212046FFF7FDFE284628
:10047000FFF7D4FF80212046FFF7F4FE2846FFF760
:10048000CDFF80212046FFF7EFFE2846FFF7C6FF8D
:1004900031462046FFF7E6FE2846FFF7BFFF31460C
:1004A0002046FFF7E1FE2846FFF7B8FFD4E700003B
:1004B00000140240C40400080000002000040000F2
:0404C0000E0400081E
:040000050800018965
:00000001FF
