:020000040800F2
:10000000180400209D0100084F080008F9060008A8
:100010004D080008AB020008550B00080000000066
:100020000000000000000000000000004D09000872
:10003000AD0200080000000051080008090A00088D
:10004000B7010008B7010008B7010008B7010008B0
:10005000B7010008B7010008B7010008B7010008A0
:10006000B7010008B7010008B7010008B701000890
:10007000B7010008B7010008B7010008B701000880
:10008000B7010008B7010008B7010008B701000870
:10009000B7010008B7010008B7010008B701000860
:1000A000B7010008B7010008B7010008B701000850
:1000B000B7010008B7010008B7010008B701000840
:1000C000B7010008B7010008B7010008B701000830
:1000D000B7010008B7010008B7010008B701000820
:1000E000B7010008B7010008B7010008B701000810
:1000F000B7010008B7010008B7010008B701000800
:10010000B7010008B7010008B7010008B7010008EF
:10011000B7010008B7010008B7010008B7010008DF
:10012000B7010008B7010008B7010008B7010008CF
:10013000B7010008B7010008B7010008B7010008BF
:10014000B7010008B7010008B7010008B7010008AF
:10015000B7010008B7010008B7010008B70100089F
:10016000B7010008B7010008B7010008B70100088F
:10017000B7010008B7010008B7010008B70100087F
:10018000B7010008B7010008DFF80CD000F05CF8F8
:10019000004800474911000818040020064880471D
:1001A00006480047FEE7FEE7FEE7FEE7FEE7FEE75C
:1001B000FEE7FEE7FEE7FEE70D0A000889010008FA
:1001C000D2B201E000F8012B491EFBD27047002299
:1001D000F6E710B513460A4604461946FFF7F0FF46
:1001E000204610BD2DE9F05F0546002092469B4653
:1001F00088460646814640241BE02846414647463D
:10020000224600F042F853465A46C01A914110D394
:1002100011461846224600F029F82D1A67EB01080E
:100220004F4622460120002100F020F817EB00097C
:100230004E41201EA4F10104DFDC484631462A4627
:100240004346BDE8F09F0000064C074D06E0E0681D
:1002500040F0010394E8070098471034AC42F6D30D
:10026000FFF796FFEC1100080C120008202A04DBAF
:10027000203A00FA02F1002070479140C2F12003B9
:1002800020FA03F3194390407047202A04DB203AF8
:1002900021FA02F00021704721FA02F3D040C2F1A6
:1002A00020029140084319467047FEE770472DE948
:1002B000F04705460F469146C9F3C70609F00708FF
:1002C000680713D005F00700C0F10804224639463C
:1002D000284600F071F8A9EB040082B228193919F8
:1002E000C0B2FFF7E4FF0020BDE8F087002408E07B
:1002F00005EBC40007EBC401C0B2082200F05CF8B3
:10030000641CB442F4DB05EBC60007EBC601C0B2C7
:10031000424600F051F80020E6E7000030B587B013
:100320000121022000F096FA204D042208212846DF
:1003300000F0D2F904220921284600F0CDF9A915D0
:10034000059101218DF81A1000248DF81B4002211F
:100350008DF819108DF8181005A9284600F07EF9BF
:100360006915059105A9284600F078F9012148058D
:1003700000F07EFA0E4801904BF6FF70ADF80A00CF
:100380000720ADF80C002815ADF80E000001ADF8FF
:100390001000ADF80840074C01A9204600F0EAF92A
:1003A0000121204600F0C1F907B030BD0004024031
:1003B000801A0600005400402DE9F04704460E461E
:1003C0001746DFF8E8900121484600F0BAF9394DA8
:1003D000DFF8DCA0C5F800A0DFF8DC8003E02968C6
:1003E000491E296079B14146484600F092F900283B
:1003F000F5D00022A021484600F01DFAC5F800A063
:10040000DFF8B88008E0BDE8F047012000F016B939
:100410002968491E296089B14146484600F079F9AA
:100420000028F5D0C8462146404600F00DFAC5F830
:1004300000A0DFF8889009F1020908E0BDE8F04764
:10044000022000F0FBB82868401E286038B14946F9
:10045000404600F05EF90028F5D0002416E0BDE823
:10046000F047032000F0EAB8315D404600F0ECF9B7
:10047000C5F800A003E02868401E286080B1494606
:10048000404600F046F90028F5D0641CBC42EBDB86
:100490000121404600F061F9BDE8F04700F0A4BB3F
:1004A000BDE8F047042000F0C9B800000054004047
:1004B000FFFF0F0010000020010003008200070072
:1004C0002DE9F05F824688461646DFF85C910121EF
:1004D000484600F036F9564DDFF850B1C5F800B087
:1004E000544C03E02868401E286070B121464846FD
:1004F00000F00FF90028F5D00022A021484600F0B6
:100500009AF9C5F800B04C4F08E0BDE8F05F05204F
:1005100000F094B82868401E286070B139464846FB
:1005200000F0F7F80028F5D05146484600F08CF965
:10053000C5F800B0404FBF1C08E0BDE8F05F0620E2
:1005400000F07CB82968491E296061B139464846E7
:1005500000F0DFF80028F5D00121484600F0F1F85E
:10056000C5F800B008E0BDE8F05F072000F066B80D
:100570002968491E296079B12146484600F0C9F82A
:100580000028F5D00122A021484600F054F9C5F812
:1005900000B0284C641C08E0BDE8F05F082000F0C3
:1005A0004DB82868401E286060B12146484600F0DA
:1005B000B0F80028F5D00024DFF878A0771E0AF103
:1005C0003F0A22E0BDE8F05F092000F037B8BC42E6
:1005D00004D10021484600F090F803E0012148468C
:1005E00000F08BF8C5F800B003E02868401E2860D2
:1005F000A0B15146484600F08CF80028F5D0484696
:1006000000F016F908F80400641CB442DFDB012195
:10061000484600F0A2F80020BDE8F09FBDE8F05F7A
:100620000A2000F00BB8000000540040FFFF0F004C
:1006300010000020010003008200070010B50446EE
:10064000214602A000F01CFB204610BD0D0A457299
:10065000726F723A2025640D0A0000002DE9F04106
:10066000002201274FF0030C07FA02F50B682B401C
:10067000AB422CD1066853000CFA03F4A643066083
:100680000E79D0F800809E4046EA080606600E7992
:10069000012E01D0022E12D18668A64386604E79C3
:1006A000D0F808809E4046EA080686604668AE4359
:1006B000466045688E799640B6B235434560C56858
:1006C000A543C560CC799C40C3681C43C460521CE0
:1006D000102AC9D3BDE8F08110B54B07DB0E9A4054
:1006E000C90800EB8100016A0F249C40A14301620C
:1006F000016A1143016210BDFEE7002904D00188A0
:1007000041F4806101807047018821F4806101809B
:100710007047034600209A8A1B8B1B041A4322F061
:100720007F42914300D101207047002904D0018805
:1007300041F0010101807047018821F00101018031
:100740007047002904D0018841F48071018070470E
:10075000018821F4807101807047002904D001884C
:1007600041F4007101807047018821F4007101801B
:10077000704700007FB504460D46A08820F03F0674
:10078000684600F091F802982749B0FBF1F189B270
:100790000E43A680228822F001022280234B2A6881
:1007A0009A4209D85200B0FBF2F080B2042800D27D
:1007B0000420491C218423E0EB88A3F53F46FF3E3B
:1007C0000BD002EBC20303EB0212B0FBF2F080B2DB
:1007D00040F48040020506D007E002EB4202B0FB85
:1007E000F2F080B2F6E740F0010040F400404FF430
:1007F000967251434FF47A72B1FBF2F1491C218495
:10080000A083208840F00100208020884FF6F53139
:100810000840A9886A89114301432180A889298950
:10082000084320817FBD000040420F00A0860100E8
:10083000008AC0B27047002A02D041F0010101E0F5
:1008400001F0FE010182704701827047FEE77047A8
:1008500070470000054A002903D011680143116068
:1008600070471168814311607047000030380240C2
:10087000054A002903D011680143116070471168CF
:10088000814311607047000040380240054A00294A
:1008900003D01168014311607047116881431160F2
:1008A000704700004438024070B5244B196801F0CD
:1008B0000C01234C00291ED0224E04291DD00829EA
:1008C0001DD00460196801F0F00109091E4A545C4A
:1008D0000168E14041601C6804F4E054A40A145D1E
:1008E00021FA04F484601B6803F460435B0BD25C60
:1008F000D140C16070BD0460E4E70660E2E70F4AE2
:10090000121F1168C1F38055116801F03F0135B124
:10091000B6FBF1F11468C4F38814614305E0B4FB3D
:10092000F1F11468C4F3881461431268C2F3014200
:10093000521C5200B1FBF2F10160C3E708380240DB
:100940000024F40040787D01000000207047000082
:100950000CB50022019200922749086840F48030CB
:1009600008604FF4A043086800F40030009001983C
:10097000401C0190009810B901989842F3D1086882
:10098000800302D50120009000E000920098012829
:1009900031D119484030026842F080520260174855
:1009A000026842F440420260134808300268026064
:1009B000026842F400420260026842F4A0520260FF
:1009C000021F0F4B13600A6842F080720A600A68C7
:1009D0009201FCD50B4A40F205711160016821F0CB
:1009E00003010160016841F0020101600168C1F387
:1009F00081010229FAD10CBD00380240007000408C
:100A000019544007003C02407047000010B51248DE
:100A1000016841F4700101601048016841F0010172
:100A200001600E4A00210832116002680C4B1A4026
:100A30000260031D0B4A1A60026822F480220260E1
:100A400006480C300160FFF783FF03494FF0006058
:100A50008039086010BD000088ED00E000380240D9
:100A6000FFFFF6FE10300024002904D0818941F4F4
:100A7000005181817047818921F400518181704743
:100A80000246002012880A4200D001207047000070
:100A90007FB504460D46208A20F44051E88808437B
:100AA0002082A08941F20C618843A9882A891143D8
:100AB0006A8902431143A181A08A20F44071A88968
:100AC0000843A0826846FFF7EFFE1E48844202D02A
:100AD0001D48844201D1039800E00298A1890904CD
:100AE00008D500EBC00101EB001029684900B0FBFC
:100AF000F1F007E000EBC00101EB0010296889006C
:100B0000B0FBF1F06422B0FBF2F109010B096FF0C8
:100B100018056B4300EB8300A3891D044FF03203DB
:100B200007D503EBC000B0FBF2F000F0070008436C
:100B300006E003EB0010B0FBF2F000F00F000843FA
:100B400020817FBD0010014000140140C1F3080165
:100B500081807047FEE7000010B586B0012108468D
:100B6000FFF778FE4FF40070049001208DF8170015
:100B700002208DF815008DF81400194C04A92046A8
:100B8000FFF76CFD2115049104A92046FFF766FDCF
:100B9000072209212046FFF79FFD07220A21204650
:100BA000FFF79AFD01211020FFF770FE4FF4E130AE
:100BB00000900020ADF80400ADF80600ADF8080084
:100BC000ADF80C000C20ADF80A00064C6946204632
:100BD000FFF75EFF01212046FFF746FF06B010BD7C
:100BE00000000240001001402DE9F0411F4E344644
:100BF000DFF87C801F4D30E001214046FFF7A1FD6A
:100C00002E601D4F03E02A68521E2A606AB13946E1
:100C10004046FFF77EFD0028F5D00022A021404687
:100C2000FFF709FE2E60154F08E0BDE8F0410B20EC
:100C3000FFF704BD2A68521E2A602AB13946404691
:100C4000FFF767FD0028F5D0286830B10121404644
:100C5000FFF783FD0020BDE8F081641E601CCBD14E
:100C600001214046FFF779FD0120F4E7FFFF0F0067
:100C70000054004010000020010003008200070023
:100C80000FB4054B10B503A9044A029800F018F8F8
:100C900010BC5DF814FB00002511000814000020B2
:100CA00002E008C8121F08C1002AFAD17047704735
:100CB000002001E001C1121F002AFBD17047000093
:100CC0002DE9FF4F8DB00F460546002606E025288A
:100CD0000BD0DDE90F1290476D1C761C2878002898
:100CE000F5D111B03046BDE8F08F0024A246A146F0
:100CF0000122EC4900E0044315F8013F203B02FAD1
:100D000003F00842F7D128782A2810D06FF02F027C
:100D10002878A0F13001092914D80AEB8A0102EBE6
:100D2000410144F0020400EB010A6D1CF0E701CF21
:100D30005FEA000A03D544F40054CAF1000A44F003
:100D400002046D1C28782E2817D115F8010F44F0E5
:100D500004042A280ED06FF02F022878A0F1300169
:100D600009290AD809EB890102EB410100EB0109CD
:100D70006D1CF2E757F8049B6D1C28786C280FD087
:100D800006DC4C2817D068280DD06A2814D104E05E
:100D9000742810D07A280FD10DE044F400140AE032
:100DA00044F4801401E044F440146978814202D193
:100DB00004F580146D1C6D1C2A786E2A1FD00CDC83
:100DC000632A31D004DC002A8BD0582A11D1A3E049
:100DD000642A68D0692A0CD165E0732A2ED004DC1D
:100DE0006F2A73D0702A04D19BE0752A6FD0782ABD
:100DF0006ED01046DDE90F129047761C50E1C4F327
:100E00000250022806D0032809D0042801CF09D0B7
:100E1000066045E101CFF117C0E9006140E101CF73
:100E200006803DE106703BE117F8040B8DF80000E9
:100E300000208DF80100EB46012003E057F804BBC9
:100E40004FF0FF3061074FF0000102D40DE008F1D0
:100E50000101884649450FDA8045F8DB1BF8081088
:100E60000029F4D108E008F1010188468142FADB4B
:100E70001BF808100029F6D1DDE90F23AAEB0800C2
:100E80008146214600F036F9304400EB080604E0C4
:100E9000DDE90F121BF8010B9047B8F10108F7D2FA
:100EA00021464846F7E00A21C4F302534FF0000BF5
:100EB0000891022B04D001CFC117032B09D00AE0FF
:100EC000FF1D27F00707F7E8020108E032E01FE006
:100ED00020E000B2C117042B01D140B2C117031E9C
:100EE00071F1000307DA4FF0000CD0EB0C006CEB53
:100EF00001012D2302E0230504D52B238DF8243096
:100F0000012303E0E30701D02023F7E7984658E0E8
:100F10000A2110E010210EE010204FF0000B089085
:100F20000CE010214FF0000B44F004044FF00809CE
:100F3000089103E008214FF0000B0891C4F302531D
:100F4000022B04D001CF0021032B06D006E0FF1DA9
:100F500027F00707F7E8020103E080B2042B00D175
:100F6000C0B24FF0000823072BD5702A07D0DDF858
:100F700020C08CF0100C5CEA0B0C05D00EE0402376
:100F80008DF82430012308E050EA010306D0302315
:100F90008DF824308DF8252002239846DDF820C0F6
:100FA0008CF0080C5CEA0B0C0BD150EA010301D168
:100FB000630706D530238DF824304FF00108A9F1DE
:100FC0000109582A04D038A20B9208AA0A920BE011
:100FD0003AA2F9E75B46089AFFF704F90B9B9B5C82
:100FE0000A9A521E0A92137050EA0102F2D10A982C
:100FF000ADEB000000F1200B600702D524F4803433
:1010000001E04FF00109D94502DDA9EB0B0000E03A
:10101000002000EB0B0141440890AAEB010AE00319
:1010200006D4DDE90F232146504600F063F806445C
:101030004FF0000908E009A911F80900DDE90F12D5
:10104000904709F10109761CC145F4DBE0030CD59A
:10105000DDE90F232146504600F04CF8064404E039
:10106000DDE90F1230209047761C0899481E089041
:101070000029F5DC08E00A980A990078491C0A91D1
:10108000DDE90F129047761CBBF10001ABF1010BBB
:10109000F1DC21465046DDE90F2300F019F8064443
:1010A0006D1C1BE6092801003031323334353637E8
:1010B00038396162636465660000000030313233A4
:1010C0003435363738394142434445460000000044
:1010D0002DE9F041044600251E461746880404D435
:1010E00005E039462020B0476D1C641EF9D528461E
:1010F000BDE8F0812DE9F041044600251E469046EA
:10110000C80301D5302700E02027880404D505E076
:1011100041463846B0476D1C641EF9D52846BDE8E7
:10112000F081000070B50446064DE1B22846FFF795
:101130000DFD80212846FFF7A3FC0028F9D02046AA
:1011400070BD000000100140ADF5007D4FF48074CB
:10115000214640A8FFF73BF821466846FFF737F8DD
:10116000002040AB1854401C80B2FF28FAD9FFF78A
:10117000F3FC10A0FFF784FDFFF7D0F8224640A94A
:101180000020FFF794F8224669460020FFF798F9FF
:1011900000246D460DA0295DFFF772FD641CA4B20A
:1011A000FF2CF7D90BA0FFF76BFD0BA0FFF768FD35
:1011B000FEE70000D5E2CAC7D2BBB8F6454550529B
:1011C0004F4DB6C1D0B4CAB5D1E90A003078253048
:1011D000327820000A000000B6C1D0B4B2E2CAD40E
:1011E000BDE1CAF82121210A000000000C1200080C
:1011F0000000002018000000A00C000824120008C5
:101200001800002000040000B00C000800000000DE
:10121000010203040102030406070809FFFF0F008F
:0412200000000000CA
:040000050800018965
:00000001FF
