:020000040800F2
:10000000580400209D010008C70C0008710B00086F
:10001000C50C000825070008CD0F000800000000EF
:10002000000000000000000000000000C50D0008F6
:100030002707000800000000C90C0008810E000816
:10004000B7010008B7010008B7010008B7010008B0
:10005000B7010008B7010008B7010008B7010008A0
:10006000B7010008B7010008B7010008B701000890
:10007000B7010008B7010008B7010008B701000880
:10008000B7010008B7010008B7010008B701000870
:10009000B7010008B7010008B7010008B701000860
:1000A000B7010008B7010008B7010008B701000850
:1000B000B7010008B7010008B7010008B701000840
:1000C000B7010008B7010008B7010008B701000830
:1000D000B7010008B7010008B7010008B701000820
:1000E000B7010008B7010008B7010008B701000810
:1000F000B7010008B7010008B7010008B701000800
:10010000B7010008B7010008B7010008B7010008EF
:10011000B7010008B7010008B7010008B7010008DF
:10012000B7010008B7010008B7010008B7010008CF
:10013000B7010008B7010008B7010008B7010008BF
:10014000B7010008B7010008B7010008B7010008AF
:10015000B7010008B7010008B7010008B70100089F
:10016000B7010008B7010008B7010008B70100088F
:10017000B7010008B7010008B7010008B70100087F
:10018000B7010008B7010008DFF80CD000F02AFA28
:1001900000480047111A000858040020064880470C
:1001A00006480047FEE7FEE7FEE7FEE7FEE7FEE75C
:1001B000FEE7FEE7FEE7FEE7850E0008890100087E
:1001C00000F0004230F000400AD0C10D01F560712E
:1001D000C0F3160042EA0151C208400711437047BC
:1001E00000200146704730B50B4601460020202212
:1001F000012409E021FA02F59D4205D303FA02F534
:10020000491B04FA02F52844151EA2F10102F1DC93
:1002100030BD2DE9F05F0546002092469B4688469A
:100220000646814640241BE0284641464746224672
:1002300000F0F9F953465A46C01A914110D31146BD
:100240001846224600F0E0F92D1A67EB01084F46E8
:1002500022460120002100F0D7F917EB00094E419A
:10026000201EA4F10104DFDC484631462A464346FD
:10027000BDE8F09F2DE9FE4F804681EA0300C00FE4
:100280000C46009021F0004123F00045B8EB02003D
:10029000A94105D24046214690461C460B460246DF
:1002A00023F00040104347D0270DC7F30A00C3F3E3
:1002B0000A510290401A019040286BDAC3F31300F0
:1002C00040F4801B0098924620B10023D2EB030A31
:1002D00063EB0B0B01985946C0F14002504600F009
:1002E00093F906460D4650465946019A00F0ABF97F
:1002F00010EB08006141002487EA115284EAE77399
:100300001A4340D0009A62B3019A012A4FEA075279
:1003100015DC001B61EB02014FF0004202EA0752BC
:10032000CDE90042001C41F5801132462B4600F019
:10033000ABF903B0BDE8F08F40462146F9E7001B5A
:1003400061EB0201001C41F5801300185B4120188D
:10035000A2F5001747EB030140EAD570B6196D41CD
:1003600011E06D084FEA360645EAC0754FEA0752BC
:10037000001B61EB0201001C41F5801149084FEAA6
:1003800030000019514132462B4603B0BDE8F04F12
:1003900000F06BB90098012240000023D0EB02026C
:1003A00063EBE073009821464FEAE074B8EB00007D
:1003B00061EB0401E9E783F000435BE781F0004172
:1003C00058E72DE9FE4F81EA030404F0004421F0D0
:1003D000004100944FF0000B23F0004350EA010469
:1003E0005ED052EA03045BD0C3F30A54C1F30A554A
:1003F0002C44A4F2F3340194A0FB0254C1F3130182
:1004000041F48011C3F3130343F4801301FB02444E
:1004100000FB034E840A970A44EA815447EA835753
:10042000A4FB076802958D0A05FB07854FEA932C0C
:1004300004FB0C542705029D4FEA065847EA16377D
:10044000B5EB08056EEB070C870E920E47EA811795
:1004500042EA8312A7FB0201B6EB0B0164EB000436
:100460002B0D43EA0C335E1844EB1C50DA46514620
:10047000E7FB0201C5F313044FEA0B3343EA1453BD
:100480004FEA0432019C43EA0603A4F10C040294EF
:10049000009CCDE900B400F0F7F803B0BDE8F08FA0
:1004A00000200146F9E72DE9F04D81EA030404F04C
:1004B000004B21F0004514464FF0000A23F00041A4
:1004C00050EA050220D054EA01021DD0C5F30A57B4
:1004D0000246C5F31303C1F31300C1F30A5640F4F7
:1004E000801543F48013A7EB0608101BD64608F2CC
:1004F000FD3873EB050002D308F1010801E0921802
:100500005B41B8F1000F03DA00200146BDE8F08D31
:1005100000204FF48011064684460EE0171B73EB53
:10052000050705D3121B63EB050306434CEA010CD8
:1005300049084FEA300092185B4150EA0107EDD1BB
:1005400052EA030012D082EA040083EA050108435C
:1005500005D0101BAB4106D20122002306E0002289
:100560004FF0004302E06FF0010253101AEB060057
:100570004CEB085110EB0A0041EB0B01BDE8F04DCC
:1005800000F073B8C1F30A52C1F3130140F2FF3314
:1005900041F480119A4202DA00200146704740F28D
:1005A00033439A42A2F2334202DC524200F03BB89B
:1005B00000F02AB830B5041E71F1000404DB4FF0DE
:1005C0000044404264EB0101141E73F1000405DB9A
:1005D0001C464FF00043524263EB0403994208BFAC
:1005E000904230BD064C074D06E0E06840F0010344
:1005F00094E8070098471034AC42F6D3FFF7C8FDE3
:10060000301B0008501B0008202A04DB203A00FAA7
:1006100002F1002070479140C2F1200320FA03F359
:10062000194390407047202A04DB203A21FA02F057
:100630000021704721FA02F3D040C2F1200291401C
:10064000084319467047202A06DBCB17203A41FAA7
:1006500002F043EAE07306E041FA02F3D040C2F14F
:100660002002914008431946704710B5141E73F1DB
:10067000000408DA401C41F1000192185B411A4362
:1006800001D120F0010010BD2DE9F04D92469B46AE
:1006900011B1B1FA81F202E0B0FA80F22032904654
:1006A000FFF7B2FF04460F4640EA0A0041EA0B0199
:1006B00053465A46084313D0114653EA010019D055
:1006C000C8F140025046FFF7AEFF05460E465046C1
:1006D00059464246FFF798FF084305D0012004E041
:1006E00020463946BDE8F08D0020054346EAE07615
:1006F0002C4337430A986305E40AA0EB0800002264
:10070000FD0A44EA47540A3002D500200146E9E7D1
:10071000010510196941DDE9084500196941BDE885
:10072000F04DA2E7FEE770472DE9F04705460F467A
:100730009146C9F3C70609F00708680713D005F00A
:100740000700C0F1080422463946284600F070F838
:10075000A9EB040082B228193919C0B2FFF7E4FFEF
:100760000020BDE8F087002408E005EBC40007EB9B
:10077000C401C0B2082200F05BF8641CB442F4DB90
:1007800005EBC60007EBC601C0B2424600F050F8C8
:100790000020E6E730B587B00121022000F096FA8C
:1007A000204D04220821284600F0D2F90422092114
:1007B000284600F0CDF9A915059101218DF81A10F0
:1007C00000248DF81B4002218DF819108DF81810A7
:1007D00005A9284600F07EF96915059105A9284666
:1007E00000F078F90121480500F07EFA0E480190EA
:1007F0004BF6FF70ADF80A000720ADF80C00281585
:10080000ADF80E000001ADF81000ADF80840074C3F
:1008100001A9204600F0EAF90121204600F0C1F9C3
:1008200007B030BD00040240801A060000540040AA
:100830002DE9F04704460E461746DFF8E8900121FF
:10084000484600F0BAF9394DDFF8DCA0C5F800A041
:10085000DFF8DC8003E02968491E296079B1414650
:10086000484600F092F90028F5D00022A021484621
:1008700000F01DFAC5F800A0DFF8B88008E0BDE878
:10088000F047012000F016B92968491E296089B196
:100890004146484600F079F90028F5D0C84621467F
:1008A000404600F00DFAC5F800A0DFF8889009F185
:1008B000020908E0BDE8F047022000F0FBB8286814
:1008C000401E286038B14946404600F05EF90028D5
:1008D000F5D0002416E0BDE8F047032000F0EAB8A8
:1008E000315D404600F0ECF9C5F800A003E028684F
:1008F000401E286080B14946404600F046F9002875
:10090000F5D0641CBC42EBDB0121404600F061F9EC
:10091000BDE8F04700F0A4BBBDE8F047042000F0BC
:10092000C9B8000000540040FFFF0F003000002055
:1009300001000300820007002DE9F05F824688462F
:100940001646DFF85C910121484600F036F9564D15
:10095000DFF850B1C5F800B0544C03E02868401EE1
:10096000286070B12146484600F00FF90028F5D004
:100970000022A021484600F09AF9C5F800B04C4F7B
:1009800008E0BDE8F05F052000F094B82868401E3C
:10099000286070B13946484600F0F7F80028F5D0D5
:1009A0005146484600F08CF9C5F800B0404FBF1CD6
:1009B00008E0BDE8F05F062000F07CB82968491E19
:1009C000296061B13946484600F0DFF80028F5D0CB
:1009D0000121484600F0F1F8C5F800B008E0BDE894
:1009E000F05F072000F066B82968491E296079B1D8
:1009F0002146484600F0C9F80028F5D00122A02180
:100A0000484600F054F9C5F800B0284C641C08E0D2
:100A1000BDE8F05F082000F04DB82868401E28604F
:100A200060B12146484600F0B0F80028F5D0002417
:100A3000DFF878A0771E0AF13F0A22E0BDE8F05FF8
:100A4000092000F037B8BC4204D10021484600F02C
:100A500090F803E00121484600F08BF8C5F800B09B
:100A600003E02868401E2860A0B15146484600F0C7
:100A70008CF80028F5D0484600F016F908F8040074
:100A8000641CB442DFDB0121484600F0A2F80020DC
:100A9000BDE8F09FBDE8F05F0A2000F00BB8000051
:100AA00000540040FFFF0F00300000200100030051
:100AB0008200070010B50446214602A000F01CFB8E
:100AC000204610BD0D0A4572726F723A2025640DE2
:100AD0000A0000002DE9F041002201274FF0030C2D
:100AE00007FA02F50B682B40AB422CD10668530085
:100AF0000CFA03F4A64306600E79D0F800809E40FD
:100B000046EA080606600E79012E01D0022E12D1A7
:100B10008668A64386604E79D0F808809E4046EAF3
:100B2000080686604668AE43466045688E79964002
:100B3000B6B235434560C568A543C560CC799C40D5
:100B4000C3681C43C460521C102AC9D3BDE8F0819D
:100B500010B54B07DB0E9A40C90800EB8100016A13
:100B60000F249C40A1430162016A1143016210BD40
:100B7000FEE7002904D0018841F4806101807047BC
:100B8000018821F4806101807047034600209A8A21
:100B90001B8B1B041A4322F07F42914300D101209A
:100BA0007047002904D0018841F00101018070479D
:100BB000018821F0010101807047002904D00188DB
:100BC00041F4807101807047018821F480710180B7
:100BD0007047002904D0018841F4007101807047FA
:100BE000018821F400710180704700007FB5044640
:100BF0000D46A08820F03F06684600F091F8029864
:100C00002749B0FBF1F189B20E43A680228822F079
:100C100001022280234B2A689A4209D85200B0FB75
:100C2000F2F080B2042800D20420491C218423E081
:100C3000EB88A3F53F46FF3E0BD002EBC20303EB6C
:100C40000212B0FBF2F080B240F48040020506D000
:100C500007E002EB4202B0FBF2F080B2F6E740F0B0
:100C6000010040F400404FF4967251434FF47A7201
:100C7000B1FBF2F1491C2184A083208840F00100DF
:100C8000208020884FF6F5310840A9886A891143F1
:100C900001432180A8892989084320817FBD000064
:100CA00040420F00A0860100008AC0B27047002AAF
:100CB00002D041F0010101E001F0FE010182704724
:100CC00001827047FEE7704770470000054A00291F
:100CD00003D01168014311607047116881431160AE
:100CE0007047000030380240054A002903D01168DF
:100CF0000143116070471168814311607047000023
:100D000040380240054A002903D0116801431160B0
:100D100070471168814311607047000044380240F9
:100D200070B5244B196801F00C01234C00291ED02A
:100D3000224E04291DD008291DD00460196801F035
:100D4000F00109091E4A545C0168E14041601C68D9
:100D500004F4E054A40A145D21FA04F484601B68CE
:100D600003F460435B0BD25CD140C16070BD046092
:100D7000E4E70660E2E70F4A121F1168C1F38055ED
:100D8000116801F03F0135B1B6FBF1F11468C4F30D
:100D90008814614305E0B4FBF1F11468C4F38814CE
:100DA00061431268C2F30142521C5200B1FBF2F1DE
:100DB0000160C3E7083802400024F40040787D0158
:100DC00000000020704700000CB500220192009244
:100DD0002749086840F4803008604FF4A043086851
:100DE00000F4003000900198401C0190009810B968
:100DF00001989842F3D10868800302D50120009041
:100E000000E000920098012831D119484030026872
:100E100042F0805202601748026842F44042026089
:100E20001348083002680260026842F4004202601F
:100E3000026842F4A0520260021F0F4B13600A685E
:100E400042F080720A600A689201FCD50B4A40F2B7
:100E500005711160016821F003010160016841F032
:100E6000020101600168C1F381010229FAD10CBDC0
:100E7000003802400070004019544007003C024016
:100E80007047000010B51248016841F4700101601C
:100E90001048016841F0010101600E4A002108324A
:100EA000116002680C4B1A400260031D0B4A1A6065
:100EB000026822F48022026006480C300160FFF7CD
:100EC00083FF03494FF000608039086010BD0000C7
:100ED00088ED00E000380240FFFFF6FE10300024ED
:100EE000002904D0818941F40051818170478189B2
:100EF00021F40051818170470246002012880A4285
:100F000000D00120704700007FB504460D46208ABE
:100F100020F44051E88808432082A08941F20C6106
:100F20008843A9882A8911436A8902431143A18110
:100F3000A08A20F44071A8890843A0826846FFF780
:100F4000EFFE1E48844202D01D48844201D103981E
:100F500000E00298A189090408D500EBC00101EB6B
:100F6000001029684900B0FBF1F007E000EBC00178
:100F700001EB001029688900B0FBF1F06422B0FB9E
:100F8000F2F109010B096FF018056B4300EB8300C8
:100F9000A3891D044FF0320307D503EBC000B0FB5B
:100FA000F2F000F00700084306E003EB0010B0FB8E
:100FB000F2F000F00F00084320817FBD00100140D7
:100FC00000140140C1F3080181807047FEE7000072
:100FD00010B586B001210846FFF778FE4FF4007087
:100FE000049001208DF8170002208DF815008DF86F
:100FF0001400194C04A92046FFF76CFD211504913B
:1010000004A92046FFF766FD072209212046FFF7C5
:101010009FFD07220A212046FFF79AFD012110209B
:10102000FFF770FE4FF4E13000900020ADF80400AF
:10103000ADF80600ADF80800ADF80C000C20ADF8D6
:101040000A00064C69462046FFF75EFF0121204654
:10105000FFF746FF06B010BD00000240001001403F
:101060002DE9F0411F4E3446DFF87C801F4D30E003
:1010700001214046FFF7A1FD2E601D4F03E02A68C5
:10108000521E2A606AB139464046FFF77EFD0028AD
:10109000F5D00022A0214046FFF709FE2E60154F33
:1010A00008E0BDE8F0410B20FFF704BD2A68521E9E
:1010B0002A602AB139464046FFF767FD0028F5D07F
:1010C000286830B101214046FFF783FD0020BDE8CC
:1010D000F081641E601CCBD101214046FFF779FDF1
:1010E0000120F4E7FFFF0F00005400403000002013
:1010F00001000300820007000FB4054B10B503A9DF
:10110000044A029800F0DAF810BC5DF814FB000005
:10111000ED1900083400002002E008C8121F08C1C1
:10112000002AFAD170477047002001E001C1121F68
:10113000002AFBD1704700002DE9FF5F82B000213B
:10114000DDE90430020DDDF840B0034318D044F669
:101150001050A2F2FF3242431514119801281FD0FB
:10116000A5EB0B00401C5FEA000A4FF000064E4F53
:10117000DFF83891B046504615D5CAF1000413E0A7
:10118000119801244AA3012801D16FEA0B010298AA
:10119000119AC0E90031C0E9024206B0BDE8F09FF3
:1011A000CBF10000DFE704460021404A491842EB3A
:1011B0000450CDE9001012E0E00707D032463B466C
:1011C00040464946FFF7FDF88046894632463B4691
:1011D00010461946FFF7F5F806460F466410002C36
:1011E000EAD1DDE90401DDE90023BAF1000F06DAF6
:1011F000FFF7E7F842464B46FFF7E3F805E0FFF755
:1012000052F942464B46FFF74EF904460E4600227D
:10121000284BFFF7CFF903D84FF0FF30014607E026
:101220000022254B20463146FFF724F8FFF7AAF9A4
:10123000102409E0002C0ADB0A220023FEF7E9FF54
:10124000039B30321A55641E50EA0102F2D1641C2D
:10125000039AC4F111031444119A012A03D0012204
:1012600008430DD10AE0084304D000204FF0110BD1
:10127000119072E7A3EB0B056D1E0DE05B4504DDDD
:101280004FF0000205F1010504E003DA4FF000021F
:10129000A5F10105002AECD002981199C0E90231AC
:1012A000C0E9004579E70000000014400000F03F6D
:1012B000300000000000F0430000E03F2DE9FF4F48
:1012C00095B09B468946064600250FE2252877D132
:1012D00000242746F84A0121059400E0044316F84B
:1012E000013F203B01FA03F01042F7D130782A2861
:1012F00011D06FF02F033078A0F13002092A16D8F0
:10130000059A44F0020402EB820203EB420210440D
:10131000761C0590EFE759F8042B0592002A03DAB2
:10132000504244F40054059044F00204761C307896
:101330002E2816D116F8010F44F004042A280DD0E7
:101340006FF02F023078A0F13003092B09D807EB9A
:10135000870302EB4303C718761CF3E759F8047BB5
:10136000761C30786C280FD006DC4C2817D0682803
:101370000DD06A2814D104E0742810D07A280FD137
:101380000DE044F400140AE044F4801401E044F455
:1013900040147278824202D104F58014761C761CC7
:1013A000307866280BD013DC582877D009DC002869
:1013B00075D04528F6D04628F4D047281AD19DE1AB
:1013C00018E0632835D0642879D0652812D195E1DA
:1013D000702873D008DC6728F1D069286FD06E2898
:1013E0000DD06F2806D1B5E073282CD0752875D0A4
:1013F000782874D05A46179990476D1C75E1C4F34C
:101400000250022809D003280DD0D9F80010042872
:101410000DD00D6009F1040967E1D9F80010EA1751
:10142000C1E90052F6E7D9F800100D80F2E70D701F
:10143000F0E719F8041B8DF8001000208DF801006A
:10144000EA46012003E059F804AB4FF0FF30610792
:101450004FF0000102D40DE008F101018846B942C5
:101460000FDA8045F8DB1AF808100029F4D108E0FB
:1014700008F1010188468142FADB1AF808100029B8
:10148000F6D105985B46A0EB080721463846179A27
:1014900000F094FA284400EB080507E04DE029E14C
:1014A0000DE01AF8010B5A4617999047B8F1010858
:1014B000F7D25B4621463846179A13E142E00A22EA
:1014C0000092C4F302524FF0000A022A08D059F8E1
:1014D00004CB032A4FEAEC710AD00DE029E02AE0A0
:1014E00009F1070121F00702F2E802C1914609E083
:1014F0000FFA8CFC4FEAEC71042A03D14FFA8CFCF2
:101500004FEAEC71002907DA0A460021DCF1000CF1
:1015100061EB02012D2202E0220504D52B228DF879
:101520000420012203E0E20701D02022F7E79046E1
:1015300059E00A2102E010220DE010214FF0000ACC
:1015400000910BE010224FF0000A44F00404082739
:10155000009203E008224FF0000A0092C4F3025206
:10156000022A05D059F804CB0021032A08D009E04B
:1015700009F1070121F00702F2E802C1914605E0F6
:101580001FFA8CFC042A01D10CF0FF0C4FF000086C
:10159000220728D5702806D0009B83F0100353EA59
:1015A0000A0305D00EE040228DF80420012208E055
:1015B0005CEA010206D030228DF804208DF8050087
:1015C00002229046009B83F0080353EA0A030AD1E3
:1015D0005CEA010201D1620705D530228DF80420B2
:1015E0004FF001087F1E582804D034A003900EA8A5
:1015F00002900DE036A0F9E753466046009AFEF7E8
:1016000008FE84460398825C0298401E0290027095
:101610005CEA0100F0D1029806A9081A00F1200A3C
:10162000600702D524F4803400E00127574502DD2D
:10163000A7EB0A0000E0002000EB0A0100900598EB
:101640004144401A0590E00306D45B462146179AB0
:10165000059800F0B3F90544002706E001A85A46B2
:10166000C05D179990476D1C7F1C4745F6DBE00372
:101670000CD55B462146179A059800F09FF9054462
:1016800004E030205A46179990476D1C0099481E77
:1016900000900029F5DC08E0029802995A4600788B
:1016A000491C0291179990476D1CBAF10001AAF1EB
:1016B000010AF1DC65E10000092801003031323314
:1016C000343536373839616263646566000000007E
:1016D0003031323334353637383941424344454668
:1016E0000000000000F058F90544761C307800280E
:1016F0007FF4ECAD19B02846BDE8F08F620700D446
:10170000062709F1070222F0070CFCE80223E14654
:1017100003F000485FEA080C02D00FF2702C0DE0D5
:101720005FEA045C02D50FF2682C07E05FEAC47C34
:1017300002D00FF2602C01E0AFF2700C4FF0FF38D6
:1017400023F00043CDF850C065280CD006DC4528B6
:1017500009D046281DD047283DD13DE0662818D045
:1017600067287ED138E00021112F01DB112000E035
:10177000781CCDE9000106A90EA8FFF7DDFCDDE924
:101780000F010E9A03910021009207F1010A0491C2
:101790004DE04FF000400097CDE9011006A90EA8DA
:1017A000FFF7CAFCDDE90F0203920E9B119900229C
:1017B000DDF80CA00093049211B9791C00EB010A2A
:1017C000B7EB0A0004D4C0F1FF3007F1010A04901E
:1017D000AAEB0700019044E0012F00DA0127002165
:1017E000112F01DD112000E03846CDE9000106A9E6
:1017F0000EA8FFF7A1FCDDE90F010E9A039100216D
:1018000004910092BA4621070CD40399514500DA9D
:101810008A46BAF1010F05DD009AAAF10101515C77
:10182000302908D0B84202DA10F1040F06DA01219B
:10183000CDE9011015E0AAF10101E9E7002805DC76
:10184000049901440491AAEB000102E0411C5145B6
:1018500000DD8A460499401A401C01904FF0004078
:101860000290200704D40198504501DBCDF8048094
:1018700000208DF84F0002980DF14F07B0F1004F96
:1018800025D02B200E9002984FF0020800280CDA89
:10189000404202902D200E9007E00A210298FEF7A8
:1018A000A2FC3031029007F8011DB8F10001A8F147
:1018B0000108F2DC02980028EFD1791E0E9808701A
:1018C000307800F0200040F0450007F8020D12A823
:1018D000C01B00F107081498007800B1012000EB4C
:1018E0000A01019801EBE07105984144401A401E3D
:1018F0000590E00306D45B462146179A059800F050
:101900005DF805441498007818B15A461799904725
:101910006D1CE00324D55B462146179A059800F01C
:101920004DF805441CE00498002807DBDDE90301BD
:10193000884203DD0098405C179901E01799302038
:101940005A469047049805F10105401C04900198FF
:10195000401E019004D12E205A46179990476D1CC5
:10196000BAF10001AAF1010ADDDC05E017F8010B6C
:101970005A46179990476D1CB8F10001A8F101086B
:10198000F4DC5B462146179A0598ABE62D00000073
:101990002B000000200000002DE9F0410446002546
:1019A0001E461746880404D405E039462020B04777
:1019B0006D1C641EF9D52846BDE8F0812DE9F04183
:1019C000044600251E469046C80301D5302700E096
:1019D0002027880404D505E041463846B0476D1CF1
:1019E000641EF9D52846BDE8F081000070B50446B4
:1019F000064DE1B22846FFF7E5FA80212846FFF7B9
:101A00007BFA0028F9D0204670BD0000001001408C
:101A1000FFF7DEFAFEF7BEFE0121224800F05EF875
:101A200020480421001D00F059F81E480421083008
:101A300000F054F81B480821183000F04FF81948FE
:101A400004210C3000F04AF816480521103000F04F
:101A500045F815A0FFF750FB124904220831002079
:101A6000FEF762FE042215490020FEF765FF1348C9
:101A70000068FEF7A5FB41EC100B11A053EC102BF6
:101A8000FFF73AFB0749042210310020FEF74CFE15
:101A900004220A490020FEF74FFF08490CA0FFF777
:101AA0002BFBFEE710000020B4E6B4A2CAFDBEDDA9
:101AB000B5BD454550524F4D0A000000380000208A
:101AC000C4DAC8DDCAC73A252E31660A0000000014
:101AD000C4DAC8DDCAC73A25730A000070B50546E6
:101AE0000E46314608A0FFF707FB002405E0295DFC
:101AF0000CA0FFF701FB641CE4B2B442F7D3BDE8CD
:101B000070400AA0FFF7F8BA73697A65203D202576
:101B1000642C6461746120696E2062797465733A23
:101B20000D0A000030782530327820000A000000CD
:101B3000501B0008000000203800000018110008A9
:101B4000881B00083800002020040000281100082D
:101B50000000000001020304010203040607080953
:101B600012000000785634126666A63F6162630078
:101B7000B9FEB9FE00000000CDCCCCCCCCCCF43FFB
:081B8000FFFF0F000000000050
:040000050800018965
:00000001FF
