:020000040800F2
:10000000800400209D010008C30500086505000864
:10001000C1050008030200080107000800000000F5
:10002000000000000000000000000000E5050008DE
:10003000D504000800000000C5050008A10600085E
:10004000B7010008B7010008B7010008B7010008B0
:10005000B7010008B7010008B7010008B7010008A0
:10006000B7010008B7010008B7010008B701000890
:10007000B7010008B7010008B7010008B701000880
:10008000B7010008B7010008B7010008B701000870
:10009000B7010008B7010008B7010008B701000860
:1000A000B7010008B7010008B7010008B701000850
:1000B000B7010008B7010008B7010008B701000840
:1000C000B7010008B7010008B7010008B701000830
:1000D000B7010008B7010008B7010008B701000820
:1000E000B7010008B7010008B7010008B701000810
:1000F000B7010008B7010008B7010008B701000800
:10010000B7010008B7010008B7010008B7010008EF
:10011000B7010008B7010008B7010008B7010008DF
:10012000B7010008B7010008B7010008B7010008CF
:10013000B7010008B7010008B7010008B7010008BF
:10014000B7010008B7010008B7010008B7010008AF
:10015000B7010008B7010008B7010008B70100089F
:10016000B7010008B7010008B7010008B70100088F
:10017000B7010008B7010008B7010008B70100087F
:10018000B7010008B7010008DFF80CD000F018F83C
:1001900000480047210700088004002006488047E7
:1001A00006480047FEE7FEE7FEE7FEE7FEE7FEE75C
:1001B000FEE7FEE7FEE7FEE7A50600088901000866
:1001C000064C074D06E0E06840F0010394E80700A4
:1001D00098471034AC42F6D3FFF7DAFF0C0800085A
:1001E0001C08000810B507E003680C68A34201D0A2
:1001F000002010BD001D091D521E92B2F4D2012034
:1002000010BDFEE7074A904201D2074801E00548C9
:100210001038064A8B0001EA020101D5C16070471F
:100220008160704710640240006002407D0F7D0FC6
:10023000002904D0016841F00101016070470168A4
:1002400021F0010101607047F0B591B042F21076E3
:1002500001960121880500F0B7F9284C204600F0EE
:1002600057F8204600F0EAF80028FAD10290244915
:1002700003912449049180250595202106910901C7
:100280000791490008918900099189000A910B9012
:10029000C9000C910D9003210E910F90109002A9AE
:1002A000204600F0EDF818492046FFF7ABFF01218A
:1002B0002046FFF7BDFF0196204600F0BFF8012859
:1002C00003D00198411E0191F6D20198002812D165
:1002D0000E4F4024B91E8A156FF07F463C800D807A
:1002E0000A80304600F0F7F80C800D800A80304616
:1002F00000F0F1F8F2E711B0F0BD00001064024028
:100300008C07000800000020200000101A14024092
:100310002DE9F043016821F0010101600021016035
:1003200041608160C1600161212141613E493E4AD5
:1003300010394FF03D08904203D1C1F80880BDE864
:10034000F083394A4FF474651832904201D18D60C0
:10035000F5E7354A4FF474163032904201D18E6081
:10036000EDE7314A4FF074674832904201D18F6017
:10037000E5E72D4B2D4A6033984201D1CA60DEE794
:10038000294C2B4B7834A04201D1CB60D7E7DFF862
:1003900098C0284C0CF1900C604501D1CC60CEE7A0
:1003A000DFF884904FF03D5C09F1A809484502D17F
:1003B000C1F80CC0C3E72049DFF87C9008394845F4
:1003C00002D1C1F80080BAE7DFF86C8008F11808A4
:1003D000404501D10D60B2E7174D3035A84201D13B
:1003E0000E60ACE7144D4835A84201D10F60A6E776
:1003F000114D11496035091FA84201D10A609EE7DD
:100400000D4A7832904201D10B6098E70A4A903247
:10041000904201D10C6092E7074AA83290428ED1F7
:10042000C1F800C08BE70000106002403D000020D2
:10043000400F002000003D201064024001460020D3
:100440000968C90700D0012070470000024600205B
:10045000084B9A4201D2084A01E0064A103A8B0042
:1004600001D5526800E01268044B1A400A4200D0DD
:100470000120704710640240006002407D0F7D0F34
:1004800030B50368124A1340CC680A682243D1E9A8
:1004900005452C432243CC6922430C6A22434C6A13
:1004A00022438C6A22434C6B22438C6B22431A43B7
:1004B0000260426922F00703D1E90B2422431A4368
:1004C00042610A6942604A6882608968C16030BDE1
:1004D0003F801CF0704701B502E00098401E00907C
:1004E00000980028F9D108BD2DE9F041002201272C
:1004F0004FF0030C07FA02F50B682B40AB422CD1EE
:10050000066853000CFA03F4A64306600E79D0F88F
:1005100000809E4046EA080606600E79012E01D052
:10052000022E12D18668A64386604E79D0F80880E4
:100530009E4046EA080686604668AE4346604568C7
:100540008E799640B6B235434560C568A543C5600F
:10055000CC799C40C3681C43C460521C102AC9D388
:10056000BDE8F081FEE700002DE9FC4101212020DB
:1005700000F02AF84024009401208DF804000021A6
:100580008DF806108DF807008DF805100B4F6946A1
:100590003846FFF7A9FF8026009669463846FFF7E0
:1005A000A3FFA500009569463846FFF79DFF034865
:1005B0001830048006800580BDE8FC8100140240EC
:1005C000FEE7704770470000054A002903D0116814
:1005D000014311607047116881431160704700004A
:1005E00030380240704700000CB5002201920092A2
:1005F0002749086840F4803008604FF4A043086839
:1006000000F4003000900198401C0190009810B94F
:1006100001989842F3D10868800302D50120009028
:1006200000E000920098012831D11948403002685A
:1006300042F0805202601748026842F44042026071
:100640001348083002680260026842F40042026007
:10065000026842F4A0520260021F0F4B13600A6846
:1006600042F080720A600A689201FCD50B4A40F29F
:1006700005711160016821F003010160016841F01A
:10068000020101600168C1F381010229FAD10CBDA8
:10069000003802400070004019544007003C0240FE
:1006A0007047000010B51248016841F47001016004
:1006B0001048016841F0010101600E4A0021083232
:1006C000116002680C4B1A400260031D0B4A1A604D
:1006D000026822F48022026006480C300160FFF7B5
:1006E00083FF03494FF000608039086010BD0000AF
:1006F00088ED00E000380240FFFFF6FE10300024D5
:10070000FEE702E008C8121F08C1002AFAD17047AC
:100710007047002001E001C1121F002AFBD1704781
:10072000FFF722FF144D40262E808027AC1E278025
:100730004FF48078A5F800806FF07F40FFF7CBFE84
:10074000FFF782FDDFF83490DFF834A049465046C9
:10075000FFF77CFE0028F9D020220A490A48FFF75B
:1007600041FD20B126802780A5F80080FEE72E807D
:100770002780A4F80080F9E71A1402402000001036
:1007800010640240000000208C07000804030201EE
:10079000080706050C0B0A09100F0E0D1413121191
:1007A000181716151C1B1A19201F1E1D2423222181
:1007B000282726252C2B2A29302F2E2D3433323171
:1007C000383736353C3B3A39403F3E3D4443424161
:1007D000484746454C4B4A49504F4E4D5453525151
:1007E000585756555C5B5A59605F5E5D6463626141
:1007F000686766656C6B6A69706F6E6D7473727131
:10080000787776757C7B7A79807F7E7D1C080008FE
:0C08100000000020800400001207000817
:040000050800018965
:00000001FF
