:020000040800F2
:10000000E82400209D0100085F03000801030008A8
:100010005D030008110200087109000800000000DB
:100020000000000000000000000000006907000858
:100030001302000800000000610300082508000802
:10004000B7010008B7010008B7010008B7010008B0
:10005000B7010008B7010008B7010008B7010008A0
:10006000B7010008B7010008B7010008B701000890
:10007000B7010008B7010008B7010008B701000880
:10008000B7010008B7010008B7010008B701000870
:10009000B7010008B7010008B7010008B701000860
:1000A000B7010008B7010008B7010008B701000850
:1000B000B7010008B7010008B7010008B701000840
:1000C000B7010008B7010008B7010008B701000830
:1000D000B7010008B7010008B7010008B701000820
:1000E000B7010008B7010008B7010008B701000810
:1000F000B7010008B7010008B7010008B701000800
:10010000B7010008B7010008B7010008B7010008EF
:10011000B7010008B7010008B7010008B7010008DF
:10012000B7010008B7010008B7010008B7010008CF
:10013000B7010008B7010008B7010008B7010008BF
:10014000B7010008B7010008B7010008B7010008AF
:10015000B7010008B7010008B7010008B70100089F
:10016000B7010008B7010008B7010008B70100088F
:10017000B7010008B7010008B7010008B70100087F
:10018000B7010008B7010008DFF80CD000F02EF826
:10019000004800475D220008E82400200648804708
:1001A00006480047FEE7FEE7FEE7FEE7FEE7FEE75C
:1001B000FEE7FEE7FEE7FEE72908000889010008E0
:1001C00030B50B46014600202022012409E021FA27
:1001D00002F59D4205D303FA02F5491B04FA02F524
:1001E0002844151EA2F10102F1DC30BD064C074D7A
:1001F00006E0E06840F0010394E8070098471034F7
:10020000AC42F6D3FFF7C4FF582700087827000850
:10021000FEE7704770B50F4D4021284600F06CF89E
:10022000052000F057FA0C4C4FF6FF702060FF20BD
:1002300000F050FAC00707D02068401E2060401C24
:10024000F5D1032000F0DEFF2846BDE870404021D4
:1002500000F054B800180240180000202DE9F041C9
:10026000002201274FF0030C07FA02F50B682B4020
:10027000AB422CD1066853000CFA03F4A643066087
:100280000E79D0F800809E4046EA080606600E7996
:10029000012E01D0022E12D18668A64386604E79C7
:1002A000D0F808809E4046EA080686604668AE435D
:1002B000466045688E799640B6B235434560C5685C
:1002C000A543C560CC799C40C3681C43C460521CE4
:1002D000102AC9D3BDE8F08110B54B07DB0E9A4058
:1002E000C90800EB8100016A0F249C40A143016210
:1002F000016A1143016210BD418370470183704759
:10030000FEE700002DE9FC410121202000F02AF841
:100310004024009401208DF8040000218DF806107F
:100320008DF807008DF805100B4F69463846FFF72A
:1003300095FF8026009669463846FFF78FFFA50097
:10034000009569463846FFF789FF03481830048056
:1003500006800580BDE8FC8100140240FEE770477E
:1003600070470000054A002903D01168014311605D
:1003700070471168814311607047000030380240B7
:10038000054A002903D011680143116070471168C4
:1003900081431160704700004438024070B5244B1F
:1003A000196801F00C01234C00291ED0224E0429AB
:1003B0001DD008291DD00460196801F0F001090959
:1003C0001E4A545C0168E14041601C6804F4E0543A
:1003D000A40A145D21FA04F484601B6803F46043EA
:1003E0005B0BD25CD140C16070BD0460E4E7066085
:1003F000E2E70F4A121F1168C1F38055116801F03E
:100400003F0135B1B6FBF1F11468C4F388146143C0
:1004100005E0B4FBF1F11468C4F388146143126879
:10042000C2F30142521C5200B1FBF2F10160C3E77A
:10043000083802400024F40040787D0100000020CC
:10044000002904D0018841F04001018070470188F3
:1004500021F040010180704770B5044600F072F948
:100460000D4D40212846FFF747FF202000F032F9CC
:10047000C4F3074000F02EF9C4F3072000F02AF976
:10048000E0B200F027F940212846FFF737FFBDE82A
:100490007040FFF7BFBE00000018024010B500F02A
:1004A00087F8BDE8104000F0EBB800002DE9F041FE
:1004B00005460E4617460024DFF8608023E014F05E
:1004C000FF0F1CD10CB105F5807540214046FFF7A8
:1004D00015FFFFF79FFE00F035F940214046FFF77A
:1004E0000BFF022000F0F6F8C5F3074000F0F2F829
:1004F000C5F3072000F0EEF8E8B200F0EBF8305D4D
:1005000000F0E8F8641CBC42D9DB40214046FFF70C
:10051000F5FEBDE8F041FFF77DBE00000018024087
:100520002DE9F04104460D461646114F402138464C
:10053000FFF7E2FE032000F0CDF8C4F3074000F01F
:10054000C9F8C4F3072000F0C5F8E0B200F0C2F823
:10055000002404E0FF2000F0BDF82855641CB442DC
:10056000F8DB3846BDE8F0414021FFF7C7BE000088
:100570000018024070B50D4C40212046FFF7BCFE2C
:10058000AB2000F0A7F8FF2000F0A4F8FF2000F057
:10059000A1F8FF2000F09EF8FF2000F09BF8054630
:1005A00040212046FFF7AAFE284670BD00180240F1
:1005B0001CB501214220FFF7D5FE1B4C052203216B
:1005C0002046FFF789FE052204212046FFF784FE1E
:1005D000052211462046FFF77FFE082100910221E7
:1005E0008DF804108DF8051000218DF806108DF897
:1005F000071069462046FFF731FE10210091694639
:100600002046FFF72BFE2021009169462046FFF788
:1006100025FE4020009001208DF804006946034823
:10062000FFF71CFE1CBD0000000402400018024041
:100630000246002012890A4200D0012070478089BA
:1006400070478181704730B5028802F441530A88AF
:100650004C88CD8822438C882C4322430C8922432A
:100660004C8922438C892243CC8922431A4302803D
:10067000828B22F400628283098A018230BD0000ED
:1006800010B586B001210803FFF77AFE0020ADF80F
:100690001000ADF80A00ADF80C004FF48271ADF80F
:1006A0000610ADF80400ADF81200ADF80800ADF882
:1006B00014004FF40070ADF80E00054C01A920465F
:1006C000FFF7C1FF01212046FFF7BAFE06B010BDBB
:1006D000003001402DE9F0410746184C4FF6FF75F8
:1006E0002560174E03E02068401E206058B10221AB
:1006F0003046FFF79DFF0028F5D039463046FFF71A
:10070000A0FF256008E0BDE8F041012000F07ABDBF
:100710002068401E206058B101213046FFF788FF55
:100720000028F5D03046FFF78AFFC0B2BDE8F0815F
:10073000BDE8F041022000F065BD00001800002077
:100740000030014010B5074C40212046FFF7D4FD92
:100750000620FFF7BFFF2046BDE810404021FFF70D
:10076000CDBD000000180240704700000CB500220B
:10077000019200922749086840F4803008604FF4E5
:10078000A043086800F4003000900198401C0190DC
:10079000009810B901989842F3D10868800302D5F7
:1007A0000120009000E000920098012831D1194802
:1007B0004030026842F0805202601748026842F4FA
:1007C000404202601348083002680260026842F446
:1007D00000420260026842F4A0520260021F0F4B06
:1007E00013600A6842F080720A600A689201FCD5C0
:1007F0000B4A40F205711160016821F003010160AC
:10080000016841F0020101600168C1F38101022920
:10081000FAD10CBD00380240007000401954400766
:10082000003C02407047000010B51248016841F4D6
:10083000700101601048016841F0010101600E4A39
:1008400000210832116002680C4B1A400260031D3F
:100850000B4A1A60026822F48022026006480C30BB
:100860000160FFF783FF03494FF0006080390860A3
:1008700010BD000088ED00E000380240FFFFF6FEEA
:1008800010300024002904D0818941F40051818175
:100890007047818921F40051818170470246002010
:1008A00012880A4200D00120704700007FB504463C
:1008B0000D46208A20F44051E88808432082A08910
:1008C00041F20C618843A9882A8911436A8902434D
:1008D0001143A181A08A20F44071A8890843A08215
:1008E0006846FFF75BFD1E48844202D01D488442E3
:1008F00001D1039800E00298A189090408D500EB12
:10090000C00101EB001029684900B0FBF1F007E0DD
:1009100000EBC00101EB001029688900B0FBF1F089
:100920006422B0FBF2F109010B096FF018056B436B
:1009300000EB8300A3891D044FF0320307D503EBBE
:10094000C000B0FBF2F000F00700084306E003EB44
:100950000010B0FBF2F000F00F00084320817FBDD3
:100960000010014000140140C1F30801818070476C
:10097000FEE7000010B586B001210846FFF7F2FC43
:100980004FF40070049001208DF8170002208DF8BC
:1009900015008DF81400194C04A92046FFF75EFCE1
:1009A0002115049104A92046FFF758FC07220921CC
:1009B0002046FFF791FC07220A212046FFF78CFC16
:1009C00001211020FFF7DCFC4FF4E1300090002003
:1009D000ADF80400ADF80600ADF80800ADF80C0065
:1009E0000C20ADF80A00064C69462046FFF75EFF72
:1009F00001212046FFF746FF06B010BD000002406F
:100A0000001001400FB4054B10B503A9044A029829
:100A100000F018F810BC5DF814FB0000D5200008A9
:100A20002800002002E008C8121F08C1002AFAD1DD
:100A300070477047002001E001C1121F002AFBD15E
:100A4000704700002DE9FF4F8BB09A460F460546D0
:100A5000002606E025280BD052460D9990476D1CC4
:100A6000761C28780028F5D10FB03046BDE8F08F0D
:100A70000024A0460122604900E0044315F8013F2C
:100A8000203B02FA03F00842F7D128782E2817D12C
:100A900015F8010F44F004042A280ED06FF02F023D
:100AA0002878A0F1300109290AD808EB880102EB67
:100AB000410100EB01086D1CF2E757F8048B6D1C37
:100AC000287869283ED006DC0028CDD063280BD0DA
:100AD000642804D136E0732810D075284BD05246D4
:100AE0000D999047761C85E017F8040B8DF80000EF
:100AF00000208DF80100E946012003E057F8049B2F
:100B00004FF0FF3061074FF0000401D40AE0641C8D
:100B100044450DDA8442FADB19F804100029F6D1B5
:100B200006E0641C8442FCDB19F804100029F8D1AB
:100B3000264404E019F8010B52460D999047641EB3
:100B4000F8D257E001CF4FF00A0B002802DA4042FA
:100B50002D2102E0210504D52B218DF8241001213F
:100B600003E0E10705D02021F7E70DF12009089106
:100B70000CE00021F9E701CF4FF00A0BF9E75946E5
:100B8000FFF71EFB01F1300209F8012D0028F6D114
:100B9000ADEB090000F1200B600701D44FF0010814
:100BA000D84502DDA8EB0B0000E0002080460024C1
:100BB00006E009A85246005D0D999047641C761C1A
:100BC00008988442F5DB04E0302052460D999047A6
:100BD000761CB8F10001A8F10108F5DC05E019F870
:100BE000010B52460D999047761CBBF10001ABF109
:100BF000010BF4DC6D1C34E70928010010B5044634
:100C000000202071401EE062204601F00BFC08B17C
:100C1000032010BD94F82E0294F82F1240EA012010
:100C2000A0F52A41553901D0022010BD14F8660FF5
:100C3000E178627840EA0161A078663C000440EA0D
:100C4000022001430B48B0EB012F01D1002010BD61
:100C500014F8821FE278637841EA0261A2781204F4
:100C600042EA03221143B0EB012F01D1002010BD55
:100C7000012010BD0046415400E0401C02780AB13A
:100C80008A42FAD100787047891E4269921E8A42D0
:100C900001D800207047826A807801FB00207047ED
:100CA0002DE9F04106460F46002F08D03946304660
:100CB00001F022FA022809D20120BDE8F081F5688E
:100CC00015B17069A84207D8012505E0411CF4D090
:100CD00071698142F1D83D462C46641C7069A0427E
:100CE00004D80224022D01D20020E6E72146304636
:100CF00001F002FA38B1411CDFD00128DDD0AC424E
:100D0000EBD10020D9E76FF070422146304601F068
:100D1000A3FB28B927B122463946304601F09CFB97
:100D200020B101280DD001242046C6E7F4603069C7
:100D3000411CF9D0401E3061707940F001007071A3
:100D4000F2E74FF0FF34EFE72DE9F05F8B46DBF879
:100D5000008001E008F1010898F800102F29F9D06F
:100D60005C29F7D0D0F818900B222021484601F0DA
:100D700051FB00252E462F464FF0080A38467F1CAF
:100D800018F80040202C0BD92F2C09D05C2C07D050
:100D90002E2C01D0564516D3BAF1080F0AD107E020
:100DA00008EB0700CBF80000202C4AD8042049E0CB
:100DB0002E2C02D00620BDE8F09F08264FF00B0A2B
:100DC000A806050EDAE7802C01D345F00305A4F14F
:100DD00081001E2802D95F381C2817D838467F1C8E
:100DE00018F80000A0F140013F2902D340397D29C5
:100DF00003D2AAF101018E4201D30620DBE7711C68
:100E000009F806404E1C09F80100B7E721461DA06D
:100E1000FFF732FF08B10620CDE7A4F14100192801
:100E200002D845F0020507E0A4F16100192803D8B3
:100E300045F00105203CE4B23046761C09F800403C
:100E40009CE7002026B199F80010E52902D004E0C3
:100E50000620B0E7052189F80010BAF1080F01D18A
:100E6000A9060D0E05F00301012901D140F0100083
:100E7000C5F38101012901D140F0080089F80B0078
:100E8000002098E7222A2B2C3A3B3C3D3E3F5B5DFD
:100E90007C7F000070B505460E460021284600F014
:100EA000E6F888B900242969286801F0BBFA58B926
:100EB00069690978E5290BD051B100240121284640
:100EC00000F02EF80028EED0042800D1072070BDD5
:100ED000641CB442F8D0F1E770B504460021204606
:100EE00000F0C5F8002818D12169206801F09AFAAD
:100EF00005468DB96069017881B1C17A090704D4CA
:100F00000B22A16901F070FA30B10021204600F0F7
:100F100007F80546002DE7D0284670BD0425FBE7FD
:100F20002DE9F04104460E46E7887F1C3804000C8A
:100F30000AD0216941B1206842895209B7FBF2F316
:100F400002FB13721AB166E00420BDE8F081491C6F
:100F50002161E16871B1428983785209B7FBF2F2ED
:100F60005B1E1A4257D101F0C7F80546012D06D87D
:100F70000220EAE70089B8424DD80420E5E7681C62
:100F800014D020684169A9423FD88EB1E168FFF7CB
:100F900087FE054628000DD0012D0DD0681C0DD010
:100FA000206801F084FB58B10120CEE70120CCE796
:100FB0000420CAE70720C8E70220C6E70120C4E7EB
:100FC000206800214289303001F024FA2946206847
:100FD000FFF75AFE2168C86200264FF001080CE0B6
:100FE00080F80480206801F062FB08B10120ACE7C2
:100FF0002068C16A491CC162761C20688178B142B0
:10100000EED82168C96A891BC162E560294620685B
:10101000FFF73AFE2061E780206841894909B7FB64
:10102000F1F201FB1271302202EB411108446061C0
:1010300000208AE770B5044601212046FFF72AFF09
:10104000054695B92169206801F0ECF9054665B9B6
:1010500020220021606901F0DDF9D4E905010B22AD
:1010600001F0CFF9216801200871284670BD70B5E4
:1010700004460D46E580A368012B03D02068416932
:10108000994201D8022070BD1BB90178032900D113
:10109000436A2BB141898078490911FB00F618E0B9
:1010A0000189A94201D8022070BD406A17E01946A3
:1010B000206801F021F80346581C07D0022B03D307
:1010C00020684069984203D8022070BD012070BD9D
:1010D000AD1BB542EBD219462068FFF7D5FDE360A2
:1010E00098B121684A895209B5FBF2F21044206197
:1010F00048894009B5FBF0F200FB1250302202EBA8
:10110000401008446061002070BD022070BD10B521
:10111000002803D0012803D0012010BD084610BDCF
:10112000FFF7BCF9BDE81040012000F035B803001E
:1011300002D0012B01D0042070470120A1B1012968
:1011400005D0022908D003290BD0042070474FF4A2
:1011500020601060002070474FF480501080002005
:10116000704710600020704710600020704710B575
:10117000002803D0012803D0042010BD084610BD6C
:1011800002F5C0624FF6FF7000EA033310031A46FF
:10119000FFF7C6F9002010BD10B50024002803D0C9
:1011A000012803D0012010BD204610BDFFF7E2F951
:1011B000172800D00124204610BD2DE9F0470F4626
:1011C0009846002804D0012804D00420BDE8F08708
:1011D0000846FBE702F5C06400254FF480590CE097
:1011E00020030646FFF738F930464A463946FFF7EE
:1011F0005DF9641C07F580576D1C4545F0D3002050
:10120000E4E7000010B50446214602A0FFF7FAFB10
:10121000204610BD4552524F523A25640A00000044
:1012200010B50446204600F051FC002806D12046A7
:1012300001F067FA002801D10021216010BD0000F3
:101240002DE9F74F88B090460998012803D913205B
:101250000BB0BDE8F08F08A800F0D0FF002801DA3D
:101260000B20F5E7FE4951F8206056B1002131709E
:10127000C0B205900598FFF74AFFC10703D00320CD
:10128000E6E70C20E4E7400701D50A20E0E706F195
:101290000A0202210598FFF74AFF30B97089B0F5BC
:1012A000805F02D8B0F5007F01D20120D0E702AA0A
:1012B00001210598FFF73BFF10B90298802801D261
:1012C0000120C5E7099911B14FF0000A01E04FF084
:1012D0003F0AA0EB0A010291A8F1010018EA000FF1
:1012E00001D04FF00008B8F1000F13D170894FF40E
:1012F000FA62400AB2FBF0F0B1FBF0F20020D94BE9
:1013000000E0401C33F810509542FAD8D54A163206
:1013100032F81080B8F5007F02D37089B8FBF0F87E
:10132000B8F1000F01D14FF00108B8F1800F01D9D9
:101330004FF08008B1FBF8F0012740F6F6729042BA
:1013400000D302274FF6F672904200D30327032FF3
:101350001BD0012F24D04200121D7089521E02445E
:10136000B2FBF0F90125AA03B2FBF0F001900AEB01
:10137000050B0BEB0900019A841804EB0800A0EBA5
:101380000A00884212D90E2062E77289072303EB14
:1013900080001044B0FBF2F9202500200190E6E720
:1013A00000EB4000401C4208D21CD6E703AA0321F0
:1013B0000598FFF7BCFE20B9039810B1B0F5004FB7
:1013C00001D90120039003982118491E401E814332
:1013D000081B0390032F0CD081440298411BA1EB02
:1013E00009020199511AB1FBF8F10491022F03D0BF
:1013F00007E005448344F0E7049940F6F672914211
:1014000006D3032F06D104994FF6F672914201D20A
:101410000E201DE7032F02D0012F02D006E00C247E
:101420000AE0B0F5803F01D2012405E0B0F5803F2D
:1014300001D2042400E00624099810B1F02006909F
:1014400039E0728906F130000021079000F0E2FFD8
:1014500006F5F7700121417081700022C27004719D
:10146000FE214171029943F6C1635144B1FBF3F18E
:1014700003913F2343EA91048471C1710372427264
:101480008272C272029901730A0A42730A0C827351
:10149000090EC173552086F82E02AA2086F82F0265
:1014A0000123002207990598FFF787FE08B1012064
:1014B000CEE6F820069006F130047289002120461D
:1014C00000F0A8FF0B2268A1204600F09AFF708967
:1014D000E072000A207384F80D80A573280AE07377
:1014E00001202074032F0BD040026074000AA07406
:1014F0000298B0F5803F05D2E074000A20750AE03A
:101500000020F2E704F8200F010A6170010CA170BD
:10151000000EE070203C069860753F202076002089
:101520006076FF21A176E07684F81CA04FEA1A20AD
:1015300060774FEA1A40A0774FEA1A60E07700F030
:101540005BFE039080222921032F24D0163460747F
:10155000030AA374030CE374000E207584F8009052
:101560004FEA19206070A2732174163C132241A126
:1015700004F12B0000F045FF552084F8FE01AA205D
:1015800084F8FF010123524621460598FFF715FE16
:1015900060B301205CE62534A077030AE377030CEF
:1015A00084F82030000E84F8210004F8019C4FEAF2
:1015B000192020704FEA194060704FEA1960A0703E
:1015C0000220E071002020726072A0720123E37299
:1015D000207306236373A073E2766177253C1322A0
:1015E00029A104F1470000F00CFFC5E7032F06D145
:1015F00001230AF1060221460598FFF7DEFD5D464C
:101600004FF0000B72890021204600F003FF06987E
:101610000390032F12D0012F0ED06FF0FF01014372
:10162000039121700398000A60700398000CA07069
:101630000398000EE07039E01849F0E760F0FF0011
:10164000039020700398000A60700398000CA0704B
:101650000398000EE070FF2020716071A0711FE000
:10166000200000202A270008EBFE904D53444F53E2
:10167000352E30004E4F204E414D45202020204633
:1016800041542020202020004E4F204E414D452027
:1016900020202046415433322020200000FFFF004C
:1016A000E07120726072A0720F20E0722A466D1CF9
:1016B000012321460598FFF780FD08B10120C7E509
:1016C00072890021204600F0A5FE012003900CE065
:1016D0002A466D1C012321460598FFF76EFD08B1CF
:1016E0000120B5E50398401C039003984845EFD3CB
:1016F0000BF1010BBBF1000F84D0032F01D0DDF8FB
:1017000004802A466D1C012321460598FFF755FDEC
:1017100008B101209CE5B8F10108F2D1032F3AD1BC
:101720005220207060706120A0704121E17072220F
:1017300084F8E42184F8E52184F8E61184F8E701CF
:101740000498401E84F8E801010A84F8E911010CAC
:1017500084F8EA11000E84F8EB01022084F8EC0111
:10176000002084F8ED0184F8EE0184F8EF015520A3
:1017700084F8FE01AA2084F8FF0101230AF1010286
:1017800021460598FFF719FD01230AF107022146BA
:101790000598FFF712FD002211460598FFF7C7FCD8
:1017A00008B1012054E5002052E5000017B581B0D2
:1017B000144602980090684600F020FD002802DAE6
:1017C0000B2004B010BD0B4B53F82010002201B1C8
:1017D0000A700199002900D00A7043F8201001D046
:1017E000012C01D00020ECE7002202A901A800F0A2
:1017F00097FAE6E7200000202DE9F7478BB0064670
:10180000002E0FD04FF00008C6F8008002F01F072E
:1018100027F001020CA904A800F082FA054628006E
:1018200004D093E009200EB0BDE8F08701A80A902B
:1018300004A80C9900F018FC0546099C0DB904B9E0
:10184000062517F01C0F51D04DB1042D03D104A86B
:10185000FFF7F0FB054647F00807099C08E0E07A2F
:1018600010F0110F01D0072502E0780700D50825F8
:10187000DDBB380745D500F0BFFCA073010AE1735A
:10188000020C2274030E6374A075E17522766376F0
:1018900084F80B8084F81C8084F81D8084F81E80F6
:1018A00084F81F802146049800F0C9FC814600217D
:1018B000204600F09AFE049901200871B9F1000F4A
:1018C0001FD00498D0F82CA04946049800F05AFE86
:1018D0000546280015D10498A9F10109C0F80C901B
:1018E0005146049800F09EFD05460AE04DB9E07AA5
:1018F000C10601D5042504E0B90702D5C00700D010
:1019000007253DB9380701D547F020070498C06A7C
:10191000F0613462D5B9B77186F807802146049822
:1019200000F08DFC3061207FE17F627F40EA016042
:10193000A17F090441EA02210843F060C6F808804B
:10194000C6F8188004983060C088B08028466AE7DE
:101950002DE9F84F04468846164699460020C9F8F6
:101960000000204600F0CDFE002812D1E0790028CA
:101970000FD1A079C0070BD0D4E90210401A8642DB
:1019800000D9064604F124004FF0010A009098E0C7
:101990000720BDE8F88F2268A0685189B0FBF1F3F9
:1019A00001FB1303002B6DD1B0FBF1F193785B1EAB
:1019B0001940CDB275B940B11046616900F09CFB89
:1019C000022804D20220E071E3E72069F8E7411C15
:1019D0001CD0606161692068FFF756F9D0B100EB57
:1019E000050B20684189B6FBF1F74FB38178EA19FE
:1019F0008A4200D94F1B40783B465A464146FFF782
:101A0000B6FB50B184F807A00120C2E784F807A014
:101A10000120BEE70220E071BBE7A07940060BD5AC
:101A2000A069A0EB0B00B84206D221684A89009950
:101A300000FB028000F0E5FC206845897D4336E02C
:101A4000A2695A451CD0A17949060DD540780123D9
:101A50000099FFF7B2FB18B184F807A0012098E7BE
:101A6000A07920F04000A071206801235A464078F8
:101A70000099FFF77CFB18B184F807A0012088E7E4
:101A8000C4F818B02068A1684089B1FBF0F200FBEF
:101A90001212851AB54200D93546B1FBF0F200FBAF
:101AA0001210011924312A46404600F0AAFCA8442D
:101AB000A0682844A060D9F800002844C9F80000B4
:101AC000761B002E7FF467AF002062E770B50446F6
:101AD000204600F016FE00280ED1A1798A060BD50B
:101AE00048060ED52068012304F124014078A2693C
:101AF000FFF763FB08B1012070BDA07920F0400022
:101B0000A071E169206800F08DFC0028F4D1256AFD
:101B1000E87A40F02000E872207B2877A089000A4C
:101B20006877E068000CA877E068000EE877284640
:101B3000216900F05AFD00F05FFBA875010AE97504
:101B4000010C2976000E68760020A874E874A0794C
:101B500020F02000A0712168012008712068BDE8F4
:101B6000704000F04ABD2DE9F84F044688461646FD
:101B700099460020C9F80000204600F0C2FD002868
:101B800006D1E079002803D1A079800702D407208C
:101B9000BDE8F88FA068811900D3002604F1240065
:101BA0004FF0010A0090ADE02268A0685189B0FBB7
:101BB000F1F301FB1303002B7DD1B0FBF1F193781E
:101BC0005B1E1940CDB2F5B968B110466169FFF7E7
:101BD00067F8002870D001280DD0411C0ED060613C
:101BE000216979B10FE020690028F2D10021104667
:101BF000FFF756F8EDE70220E071C9E784F807A087
:101C00000120C5E72061A07940060FD52068012397
:101C1000A26940780099FFF7D0FA18B184F807A0BC
:101C20000120B5E7A07920F04000A071616920682B
:101C3000FFF72AF8B0B100EB050B20684189B6FB2D
:101C4000F1F737B38178EA198A4200D94F1B4078FF
:101C50003B465A464146FFF7B0FA30B184F807A038
:101C6000012095E70220E07192E7A069A0EB0B004C
:101C7000B8420AD221684A8900FB0281009800F02C
:101C8000C0FBA07920F04000A071206845897D4309
:101C90002EE0A169594510D0D4E9021291420CD22C
:101CA000407801235A460099FFF761FA28B184F879
:101CB00007A001206CE702E027E0C4F818B0206814
:101CC000A1684089B1FBF0F200FB1212851AB542FF
:101CD00000D93546B1FBF0F200FB1210204424304D
:101CE0002A46414600F08DFBA07940F04000A071EB
:101CF000A844A0682844A060D9F800002844C9F886
:101D00000000761B002E7FF44FAFD4E90201884219
:101D100000D9E060A07940F02000A071002037E7F2
:101D20002DE9FF478046084616460027C8F8007090
:101D300000F064FA0546002D03DA0B2004B0BDE87C
:101D4000F087C64850F825408CB1C8F8004020788C
:101D500020B16078FFF720FAC1070AD02770E8B2F7
:101D60006070FFF7D4F9C1070AD00320E6E70C2022
:101D7000E4E71EB1400701D50A20DFE70020DDE7D8
:101D80001EB1400701D50A20D8E7607804F10A02A5
:101D90000221FFF7CCF930B96089B0F5007F02D39A
:101DA000B0F5805F01D90120C8E70025294620460B
:101DB000FEF724FF012826D10021E84604EB01109C
:101DC00000F5F770027952B1027AC37A42EA0362EF
:101DD000837A407A1B0443EA0020024300E0002299
:101DE00048F82120491C0429E8D3002658F8265039
:101DF00025B129462046FEF701FF00E0022010B180
:101E0000761C042EF2D3032802D018B10D2095E7DA
:101E1000012093E794F83B0094F83C10B4F80AC012
:101E200040EA0120604501D00D2087E794F8460084
:101E300094F8471040EA012058B914F8540FE1789B
:101E4000627840EA0160A1780904543C41EA022129
:101E50000843A06194F840A084F803A0BAF1010FF0
:101E600004D0BAF1020F01D00D2067E70AFB00FA97
:101E700094F83D20A27012B1511E0A4201D00D20EB
:101E80005CE794F8411094F8423041EA032323813F
:101E90004FEA5C16B3FBF6F106FB113109B10D20D8
:101EA0004CE794F8431094F8448041EA082179B94A
:101EB00094F8501094F8538094F8519041EA0861D6
:101EC00094F852804FEA084848EA092841EA080194
:101ED00094F83E8094F83F9048EA0929B9F1000F40
:101EE00008D0B3FBF6F609EB0A08B044414503D22B
:101EF0000D2023E70D2021E7A1EB0801B1FBF2F152
:101F000041B3012640F6F672914200D302264FF605
:101F1000F672914200D30326891C6161E56105EBED
:101F200009022262A844C4F82880032E14D03BB3CF
:101F300052446262022E25D001F0010201EB410100
:101F400002EB5101491E6144B1FBFCF181421BD9F6
:101F50000D20F3E60D20F1E60BB10D20EEE694F82E
:101F60005C2094F85F3094F85D8042EA036294F854
:101F70005E301B0443EA08231A4362628900E1E7EA
:101F80000D20DBE64900DDE74FF0FF302061E06027
:101F900080206071032E57D194F8600094F861108E
:101FA00040EA012001284FD1691C204600F03AFA8E
:101FB000F0BB677194F82E0294F82F1240EA0120CA
:101FC000A0F52A4155393FD114F8300FE1786278F5
:101FD00040EA0160A178303C090441EA022108434B
:101FE0001F49884230D194F8140294F8171294F8DB
:101FF000152240EA016094F81612090441EA022110
:102000000843184988421FD194F8180294F81B120B
:1020100094F8192240EA016094F81A12090441EA7E
:1020200002210843206194F81C0294F81F1200E07A
:102030000AE040EA016094F81E1294F81D22090497
:1020400041EA02210843E06026700449091F08881C
:10205000401C0880E080002070E600002000002086
:10206000525261417272416173B504460199087818
:102070002F2801D05C2801D1491C01910025A560C1
:1020800001980078202805D200212046FEF7EFFFB6
:1020900065617CBD01A92046FEF756FE0028F8D1F7
:1020A0002046FEF719FFA169C97A28B10428F0D1AA
:1020B0004907EED405207CBD4907FCD46169C87A84
:1020C000C00601D405207CBD206800F0B8F8A060EF
:1020D000E0E7000070B50446064DE1B22846FEF781
:1020E00043FC80212846FEF7D9FB0028F9D0204682
:1020F00070BD0000001001402DE9F04104460D467E
:10210000022D02D36069A84201D8012609E04FF0F0
:10211000FF362078012807D0022835D003284BD07D
:1021200001263046BDE8F08105EB55076089216A3C
:10213000B7FBF0F00144204600F074F90028F0D11C
:1021400060893946B1FBF0F200FB121121447F1C7B
:1021500091F83080B7FBF0F0216A0144204600F08E
:1021600061F90028DDD16089B7FBF0F100FB117047
:10217000204490F8300048EA0020E90701D0060921
:10218000CFE7C0F30B06CCE76089216A4008B5FBB6
:10219000F0F00144204600F045F90028C1D16189E2
:1021A0006800B0FBF1F201FB1200204430300178EE
:1021B000407841EA0026B4E76089216A8008B5FBCF
:1021C000F0F00144204600F02DF90028A9D16189E2
:1021D000A800B0FBF1F201FB12002044303001787E
:1021E000C27841EA026182784078120442EA002013
:1021F000014321F0704694E70020704710B5044673
:102200004FF0FF302368002B0BD0194600E0491C2B
:102210000A78212A01D33A2AF9D10A783A2A01D038
:10222000002010BD13F8012B303A0A2AF9D28B4254
:10223000F7D1022AF5D21046491C216010BD024692
:10224000887ECB7E40EA03201278032A05D10A7DDE
:10225000497D42EA012140EA01407047FEF752F809
:10226000FEF788FB012232A13248FFF79FFA324C79
:102270002070014631A0FEF7C5FB20780D2815D14E
:10228000002211462AA0FEF7DBFF2070014630A095
:10229000FEF7B8FB012226A10020FFF787FA207085
:1022A000012223A12348FFF781FA20700B222CA1E1
:1022B0002E48FFF7A1FA207001462DA0FEF7A2FBE1
:1022C0001D4B16221B1D2EA12848FFF74CFC207029
:1022D000014631A0FEF796FB2448FEF7A1FF2070CF
:1022E000014632A0FEF78EFB01221DA11F48FFF719
:1022F00083FA207001461EA0FEF784FB0E4B1622C7
:102300001B1D2F491948FFF723FB207001462DA004
:10231000FEF778FB2A492FA0FEF774FB1348FEF75F
:102320007FFF2070014621A0FEF76CFBFEE7000056
:10233000313A00002C00002010000020665F6D6F15
:10234000756E74207265733A2025640A00000000DF
:10235000665F6D6B6673207265733A2025640A00B0
:10236000313A6D65732E7478740000005C100020A3
:10237000665F6F70656E207265733A2025640A008F
:10238000CEC4BCFECFB5CDB3B6C1D0B4666C61735C
:1023900068CAB5D1E9000000665F7772697465208C
:1023A0007265733A2025640A00000000665F636C62
:1023B0006F7365207265733A2025640A000000007F
:1023C00080200020665F72656164207265733A2028
:1023D00025640A00B6C1C8A1B3F6C0B4B5C4CAFD2D
:1023E000BEDD2D3E25730A0010B50023521E541C7D
:1023F00005D010F8013B11F8014B1B1BF6D0184615
:1024000010BD03E011F8013B00F8013B521E531CC4
:10241000F8D17047C9B201E000F8011B521E531CED
:10242000FAD1704770B504460E460025E06AB04206
:1024300010D0204600F03BF905465DB960780123D5
:10244000324604F13001FEF792FE10B14FF0FF3634
:102450000125E662284670BD2DE9F04704460D4689
:102460001646022D02D36069A84202D80220BDE8B8
:10247000F087207806F0FF094FF00108012805D009
:10248000022842D003285AD00220F0E705EB550776
:102490006089216AB7FBF0F001442046FFF7C2FFD4
:1024A0000028E4D1384661897F1CB0FBF1F201FBC2
:1024B000120020443030E90703D0017869F31F117E
:1024C00000E03146017084F804806089216AB7FB1E
:1024D000F0F001442046FFF7A5FF0028C7D161892D
:1024E000B7FBF1F201FB127121443031EA0702D04F
:1024F000C6F3071205E00A78C6F3032302F0F002E0
:102500001A430A7084F80480B1E76089216A4008A0
:10251000B5FBF0F001442046FFF784FF0028A6D168
:1025200062896900B1FBF2F302FB1311214481F8C7
:102530003090320A81F8312084F8048097E760896E
:10254000216A8008B5FBF0F001442046FFF76AFFDE
:1025500000288CD16289A900B1FBF2F302FB1311B0
:10256000214430314FF07043CA7803EA02623243AB
:102570000A70130A4B70130C8B70120ECA7084F819
:10258000048074E72DE9F04104460F46022F02D380
:102590006069B84201D8022624E000261FE03946CF
:1025A0002046FFF7A9FD0546E5B1012D09D0681CBD
:1025B00009D0002239462046FFF74EFF06468EB965
:1025C00003E002260EE001260CE02069411C05D044
:1025D000401C2061607940F0010060712F46606905
:1025E000B842DCD83046BDE8F08181760A0AC2766E
:1025F0000A0C0275090E4175704770B504462046F5
:1026000000F055F8054628004FD12078032845D121
:102610006079012842D104F1300062890021064628
:10262000FFF7F8FE552084F82E02AA2084F82F0226
:10263000522084F8300084F83100612084F83200A0
:10264000412184F83310722284F8142284F8152270
:1026500084F8161284F81702206984F81802010A17
:1026600084F81912010C84F81A12000E84F81B0267
:10267000E06884F81C02010A84F81D12010C84F839
:102680001E12000E84F81F02E269521CE26260789A
:1026900001233146FEF791FD002060710022607831
:1026A0001146FEF744FD00B10125284670BD2DE915
:1026B000F04104460027207900281FD0E66A04F183
:1026C00030016078012332468846FEF776FD08B176
:1026D000012713E000202071206AA169301A884286
:1026E0000CD2E57808E0A069064460780123324600
:1026F0004146FEF762FD6D1E022DF4D23846BDE85C
:10270000F08110B500280CD0016851B10A7842B1AF
:10271000CA888088824204D14878FEF73DFDC00710
:1027200001D0092010BD002010BD000400020001EE
:10273000800040002000100008000400020000009B
:102740000080004000200010000800400020001021
:1027500000080004000200007827000800000020A4
:102760002C000000240A0008A42700082C000020E8
:10277000BC240000340A0008000000000102030429
:102780000102030406070809000000000000000021
:102790000000000000000000000000000000000039
:0427A0000000000035
:040000050800018965
:00000001FF
