:020000040800F2
:10000000000400209D010008A5010008A7010008C8
:10001000A9010008AB010008AD01000800000000C4
:10002000000000000000000000000000AF01000818
:10003000B101000800000000B3010008B50100088C
:10004000B7010008B7010008B7010008B7010008B0
:10005000B7010008B7010008B7010008B7010008A0
:10006000B7010008B7010008B7010008B701000890
:10007000B7010008B7010008B7010008B701000880
:10008000B7010008B7010008B7010008B701000870
:10009000B7010008B7010008B7010008B701000860
:1000A000B7010008B7010008B7010008B701000850
:1000B000B7010008B7010008B7010008B701000840
:1000C000B7010008B7010008B7010008B701000830
:1000D000B7010008B7010008B7010008B701000820
:1000E000B7010008B7010008B7010008B701000810
:1000F000B7010008B7010008B7010008B701000800
:10010000B7010008B7010008B7010008B7010008EF
:10011000B7010008B7010008B7010008B7010008DF
:10012000B7010008B7010008B7010008B7010008CF
:10013000B7010008B7010008B7010008B7010008BF
:10014000B7010008B7010008B7010008B7010008AF
:10015000B7010008B7010008B7010008B70100089F
:10016000B7010008B7010008B7010008B70100088F
:10017000B7010008B7010008B7010008B70100087F
:10018000B7010008B7010008DFF80CD000F018F83C
:10019000004800471D020008000400200648804770
:1001A00006480047FEE7FEE7FEE7FEE7FEE7FEE75C
:1001B000FEE7FEE7FEE7FEE7E5010008890100082B
:1001C000064C074D06E0E06840F0010394E80700A4
:1001D00098471034AC42F6D3FFF7DAFF200300084B
:1001E00030030008704702E008C8121F08C1002A47
:1001F000FAD170477047002001E001C1121F002AA8
:10020000FBD1704705E0002100E0491CB1F57A7F81
:10021000FBDB011EA0F10100F5D170473E480068EC
:1002200040F020003C4908603C48006820F4403021
:100230003A4908600846006840F480500860084663
:10024000006820F4402008600846006840F48040C0
:1002500008600846006820F44010086008460068FE
:1002600040F4803008602D481430006840F04000B1
:100270002A49143108600846006840F08000086090
:100280000846006840F48070086043E0234814305A
:10029000006820F0400021491431086040F2DC5031
:1002A000FFF7B0FF1D481430006840F040001B49C4
:1002B0001431086040F2DC50FFF7A4FF17481430F7
:1002C000006820F0800015491431086040F2DC50CD
:1002D000FFF798FF11481430006840F080000F4984
:1002E0001431086040F2DC50FFF78CFF0B481430EB
:1002F000006820F4807009491431086040F2DC5035
:10030000FFF780FF05481430006840F4807003490F
:1003100014310860BAE7000030380240001402408F
:10032000300300080000002000040000F60100086F
:040000050800018965
:00000001FF
