:020000040800F2
:10000000000400209D010008D302000877020008C8
:10001000D1020008DD010008110400080000000002
:10002000000000000000000000000000F5020008D1
:10003000DF01000800000000D5020008B10300083D
:10004000B3010008B3010008B3010008B3010008C0
:10005000B3010008B3010008B3010008B3010008B0
:10006000B3010008B3010008B3010008B3010008A0
:10007000B3010008B3010008B3010008B301000890
:10008000B3010008B3010008B3010008B301000880
:10009000B3010008B3010008B3010008B301000870
:1000A000B3010008B3010008B3010008B301000860
:1000B000B3010008B3010008B3010008B301000850
:1000C000B3010008B3010008B3010008B301000840
:1000D000B3010008B3010008B3010008B301000830
:1000E000B3010008B3010008B3010008B301000820
:1000F000B3010008B3010008B3010008B301000810
:10010000B3010008B3010008B3010008B3010008FF
:10011000B3010008B3010008B3010008B3010008EF
:10012000B3010008B3010008B3010008B3010008DF
:10013000B3010008B3010008B3010008B3010008CF
:10014000B3010008B3010008B3010008B3010008BF
:10015000B3010008B3010008B3010008B3010008AF
:10016000B3010008B3010008B3010008B30100089F
:10017000B3010008B3010008B3010008B30100088F
:10018000B3010008B3010008DFF80CD000F014F848
:1001900000480047310400080004002005480047DB
:1001A000FEE7FEE7FEE7FEE7FEE7FEE7FEE7FEE727
:1001B000FEE7FEE789010008064C074D06E0E0680F
:1001C00040F0010394E8070098471034AC42F6D39E
:1001D000FFF7DEFF1805000828050008FEE7704756
:1001E00001B502E00098401E009000980028F9D167
:1001F00008BD2DE9F041002201274FF0030C07FA5A
:1002000002F50B682B40AB422CD1066853000CFA68
:1002100003F4A64306600E79D0F800809E4046EABB
:10022000080606600E79012E01D0022E12D18668D2
:10023000A64386604E79D0F808809E4046EA0806BC
:1002400086604668AE43466045688E799640B6B291
:1002500035434560C568A543C560CC799C40C368FB
:100260001C43C460521C102AC9D3BDE8F0814183ED
:10027000704701837047FEE72DE9FC4101212020F2
:1002800000F02AF84024009401208DF80400002199
:100290008DF806108DF807008DF805100B4F694694
:1002A0003846FFF7A6FF8026009669463846FFF7D6
:1002B000A0FFA500009569463846FFF79AFF03485E
:1002C0001830048006800580BDE8FC8100140240DF
:1002D000FEE7704770470000054A002903D0116807
:1002E000014311607047116881431160704700003D
:1002F00030380240704700000CB500220192009295
:100300002749086840F4803008604FF4A04308682B
:1003100000F4003000900198401C0190009810B942
:1003200001989842F3D10868800302D5012000901B
:1003300000E000920098012831D11948403002684D
:1003400042F0805202601748026842F44042026064
:100350001348083002680260026842F400420260FA
:10036000026842F4A0520260021F0F4B13600A6839
:1003700042F080720A600A689201FCD50B4A40F292
:1003800005711160016821F003010160016841F00D
:10039000020101600168C1F381010229FAD10CBD9B
:1003A000003802400070004019544007003C0240F1
:1003B0007047000010B51248016841F470010160F7
:1003C0001048016841F0010101600E4A0021083225
:1003D000116002680C4B1A400260031D0B4A1A6040
:1003E000026822F48022026006480C300160FFF7A8
:1003F00083FF03494FF000608039086010BD0000A2
:1004000088ED00E000380240FFFFF6FE10300024C7
:10041000FEE702E008C8121F08C1002AFAD170479F
:100420007047002001E001C1121F002AFBD1704774
:10043000FFF722FF374CDFF8DCA01A344FF04008FA
:100440006FF07F474FF080094FF48076A51E402162
:100450005046FFF70CFF3846FFF7C2FE40215046DA
:10046000FFF707FF80215046FFF701FF3846FFF7EF
:10047000B7FE80215046FFF7FCFE31465046FFF79D
:10048000F6FE3846FFF7ACFE31465046FFF7F1FE68
:10049000A4F80080A5F800902E803846FFF7A0FE53
:1004A000A5F80080A4F800902E803846FFF798FE4B
:1004B000A5F80080A5F8009026803846FFF790FE4A
:1004C000A4F80080A4F800902E803846FFF788FE3C
:1004D000A4F80080A5F8009026803846FFF780FE3B
:1004E000A5F80080A4F8009026803846FFF778FE33
:1004F000A4F80080A4F8009026803846FFF770FE2C
:10050000A5F80080A5F800902E803846FFF768FE19
:100510009DE70000001402402805000800000020AC
:080520000004000022040008A1
:040000050800018965
:00000001FF
