:020000040800F2
:10000000180400209D010008DF020008810200089A
:10001000DD020008E5010008690400080000000096
:1000200000000000000000000000000001030008C4
:10003000E701000800000000E1020008BD0300081D
:10004000B7010008B7010008B7010008B7010008B0
:10005000B7010008B7010008B7010008B7010008A0
:10006000B7010008B7010008B7010008B701000890
:10007000B7010008B7010008B7010008B701000880
:10008000B7010008B7010008B7010008B701000870
:10009000B7010008B7010008B7010008B701000860
:1000A000B7010008B7010008B7010008B701000850
:1000B000B7010008B7010008B7010008B701000840
:1000C000B7010008B7010008B7010008B701000830
:1000D000B7010008B7010008B7010008B701000820
:1000E000B7010008B7010008B7010008B701000810
:1000F000B7010008B7010008B7010008B701000800
:10010000B7010008B7010008B7010008B7010008EF
:10011000B7010008B7010008B7010008B7010008DF
:10012000B7010008B7010008B7010008B7010008CF
:10013000B7010008B7010008B7010008B7010008BF
:10014000B7010008B7010008B7010008B7010008AF
:10015000B7010008B7010008B7010008B70100089F
:10016000B7010008B7010008B7010008B70100088F
:10017000B7010008B7010008B7010008B70100087F
:10018000B7010008B7010008DFF80CD000F018F83C
:1001900000480047890400081804002006488047EA
:1001A00006480047FEE7FEE7FEE7FEE7FEE7FEE75C
:1001B000FEE7FEE7FEE7FEE7CD0300088901000841
:1001C000064C074D06E0E06840F0010394E80700A4
:1001D00098471034AC42F6D3FFF7DAFFE00400088A
:1001E00000050008FEE7704701B50348009901606B
:1001F00001680029FCD108BD140000202DE9F04160
:10020000002201274FF0030C07FA02F50B682B4080
:10021000AB422CD1066853000CFA03F4A6430660E7
:100220000E79D0F800809E4046EA080606600E79F6
:10023000012E01D0022E12D18668A64386604E7927
:10024000D0F808809E4046EA080686604668AE43BD
:10025000466045688E799640B6B235434560C568BC
:10026000A543C560CC799C40C3681C43C460521C44
:10027000102AC9D3BDE8F0814183704701837047DC
:10028000FEE700002DE9FC410121202000F02AF8C2
:100290004024009401208DF8040000218DF8061000
:1002A0008DF807008DF805100B4F69463846FFF7AB
:1002B000A5FF8026009669463846FFF79FFFA500F8
:1002C000009569463846FFF799FF034818300480C7
:1002D00006800580BDE8FC8100140240FEE77047FF
:1002E00070470000054A002903D0116801431160DE
:1002F0007047116881431160704700003038024038
:10030000704700000CB5002201920092274908684E
:1003100040F4803008604FF4A043086800F40030D7
:1003200000900198401C0190009810B901989842E3
:10033000F3D10868800302D50120009000E000920C
:100340000098012831D119484030026842F08052AB
:1003500002601748026842F44042026013480830C5
:1003600002680260026842F400420260026842F4DD
:10037000A0520260021F0F4B13600A6842F08072A5
:100380000A600A689201FCD50B4A40F205711160BF
:10039000016821F003010160016841F00201016080
:1003A0000168C1F381010229FAD10CBD0038024075
:1003B0000070004019544007003C024002480168A8
:1003C000491E0160704700001400002010B512485B
:1003D000016841F4700101601048016841F00101B9
:1003E00001600E4A00210832116002680C4B1A406D
:1003F0000260031D0B4A1A60026822F48022026028
:1004000006480C300160FFF77DFF03494FF00060A4
:100410008039086010BD000088ED00E0003802401F
:10042000FFFFF6FE103000240D484FF47A7100688B
:10043000B0FBF1F0401EB0F1807F01D301200AE053
:100440004FF0E0214861074AF020107000208861D9
:10045000072008610020002800D0FEE77047000058
:100460000000002023ED00E0FEE702E008C8121FB4
:1004700008C1002AFAD170477047002001E001C18D
:10048000121F002AFBD17047FFF7FCFEFFF7CCFFDD
:10049000124E4FF4FA74B51540213046FFF7ECFECA
:1004A0002046FFF7A1FE40213046FFF7E7FE8021FE
:1004B0003046FFF7E1FE2046FFF796FE80213046EA
:1004C000FFF7DCFE29463046FFF7D6FE2046FFF751
:1004D0008BFE29463046FFF7D1FEDDE700140240CF
:1004E0000005000800000020180000006A04000851
:1004F0001805000818000020000400007A04000815
:10050000007A030A0000000000000000010203045A
:080510000607080900000000C5
:040000050800018965
:00000001FF
