:020000040800F2
:10000000180400209D0100089B0300083D03000820
:100010009903000887020008850600080000000018
:100020000000000000000000000000007D04000847
:1000300089020008000000009D030008390500083F
:10004000B7010008B7010008B7010008B7010008B0
:10005000B7010008B7010008B7010008B7010008A0
:10006000B7010008B7010008B7010008B701000890
:10007000B7010008B7010008B7010008B701000880
:10008000B7010008B7010008B7010008B701000870
:10009000B7010008B7010008B7010008B701000860
:1000A000B7010008B7010008B7010008B701000850
:1000B000B7010008B7010008B7010008B701000840
:1000C000B7010008B7010008B7010008B701000830
:1000D000B7010008B7010008B7010008B701000820
:1000E000B7010008B7010008B7010008B701000810
:1000F000B7010008B7010008B7010008B701000800
:10010000B7010008B7010008B7010008B7010008EF
:10011000B7010008B7010008B7010008B7010008DF
:10012000B7010008B7010008B7010008B7010008CF
:10013000B7010008B7010008B7010008B7010008BF
:10014000B7010008B7010008B7010008B7010008AF
:10015000B7010008B7010008B7010008B70100089F
:10016000B7010008B7010008B7010008B70100088F
:10017000B7010008B7010008B7010008B70100087F
:10018000B7010008B7010008DFF80CD000F04AF80A
:10019000004800478D1000081804002006488047DA
:1001A00006480047FEE7FEE7FEE7FEE7FEE7FEE75C
:1001B000FEE7FEE7FEE7FEE73D05000889010008CF
:1001C0002DE9F05F0546002092469B46884606468C
:1001D000814640241BE0284641464746224600F01F
:1001E00042F853465A46C01A914110D31146184658
:1001F000224600F029F82D1A67EB01084F462246E7
:100200000120002100F020F817EB00094E41201ECC
:10021000A4F10104DFDC484631462A464346BDE8E6
:10022000F09F0000064C074D06E0E06840F0010337
:1002300094E8070098471034AC42F6D3FFF7A8FFC4
:100240001C1100083C110008202A04DB203A00FAA7
:1002500002F1002070479140C2F1200320FA03F31D
:10026000194390407047202A04DB203A21FA02F01B
:100270000021704721FA02F3D040C2F120029140E0
:10028000084319467047FEE770472DE9F041002208
:1002900001274FF0030C07FA02F50B682B40AB4225
:1002A0002CD1066853000CFA03F4A64306600E79BD
:1002B000D0F800809E4046EA080606600E79012EBE
:1002C00001D0022E12D18668A64386604E79D0F8FE
:1002D00008809E4046EA080686604668AE4346604F
:1002E00045688E799640B6B235434560C568A543EA
:1002F000C560CC799C40C3681C43C460521C102A62
:10030000C9D3BDE8F08110B54B07DB0E9A40C90890
:1003100000EB8100016A0F249C40A1430162016A45
:100320001143016210BD0246002012690A4200D04A
:10033000012070474183704701837047FEE700004A
:100340002DE9FC410121202000F02AF840240094EE
:1003500001208DF8040000218DF806108DF80700AB
:100360008DF805100B4F69463846FFF78EFF802643
:10037000009669463846FFF788FFA5000095694654
:100380003846FFF782FF0348183004800680058056
:10039000BDE8FC8100140240FEE770477047000092
:1003A000054A002903D011680143116070471168A4
:1003B000814311607047000030380240054A00292F
:1003C00003D01168014311607047116881431160C7
:1003D000704700004438024070B5244B196801F0A2
:1003E0000C01234C00291ED0224E04291DD00829BF
:1003F0001DD00460196801F0F00109091E4A545C1F
:100400000168E14041601C6804F4E054A40A145DF2
:1004100021FA04F484601B6803F460435B0BD25C34
:10042000D140C16070BD0460E4E70660E2E70F4AB6
:10043000121F1168C1F38055116801F03F0135B1F9
:10044000B6FBF1F11468C4F38814614305E0B4FB12
:10045000F1F11468C4F3881461431268C2F30142D5
:10046000521C5200B1FBF2F10160C3E708380240B0
:100470000024F40040787D01000000207047000057
:100480000CB50022019200922749086840F48030A0
:1004900008604FF4A043086800F400300090019811
:1004A000401C0190009810B901989842F3D1086857
:1004B000800302D50120009000E0009200980128FE
:1004C00031D119484030026842F08052026017482A
:1004D000026842F440420260134808300268026039
:1004E000026842F400420260026842F4A0520260D4
:1004F000021F0F4B13600A6842F080720A600A689C
:100500009201FCD50B4A40F205711160016821F09F
:1005100003010160016841F0020101600168C1F35B
:1005200081010229FAD10CBD003802400070004060
:1005300019544007003C02407047000010B51248B3
:10054000016841F4700101601048016841F0010147
:1005500001600E4A00210832116002680C4B1A40FB
:100560000260031D0B4A1A60026822F480220260B6
:1005700006480C300160FFF783FF03494FF000602D
:100580008039086010BD000088ED00E000380240AE
:10059000FFFFF6FE10300024002904D0818941F4C9
:1005A000005181817047818921F400518181704718
:1005B0000246002012880A4200D001207047000045
:1005C0007FB504460D46208A20F44051E888084350
:1005D0002082A08941F20C618843A9882A891143AD
:1005E0006A8902431143A181A08A20F44071A8893D
:1005F0000843A0826846FFF7EFFE1E48844202D0FF
:100600001D48844201D1039800E00298A1890904A1
:1006100008D500EBC00101EB001029684900B0FBD0
:10062000F1F007E000EBC00101EB00102968890040
:10063000B0FBF1F06422B0FBF2F109010B096FF09D
:1006400018056B4300EB8300A3891D044FF03203B0
:1006500007D503EBC000B0FBF2F000F00700084341
:1006600006E003EB0010B0FBF2F000F00F000843CF
:1006700020817FBD0010014000140140C1F308013A
:1006800081807047FEE7000010B586B00121084662
:10069000FFF786FE4FF40070049001208DF81700DC
:1006A00002208DF815008DF81400194C04A920467D
:1006B000FFF7EBFD2115049104A92046FFF7E5FDA6
:1006C000072209212046FFF71EFE07220A212046A5
:1006D000FFF719FE01211020FFF770FE4FF4E13003
:1006E00000900020ADF80400ADF80600ADF8080059
:1006F000ADF80C000C20ADF80A00064C6946204607
:10070000FFF75EFF01212046FFF746FF06B010BD50
:1007100000000240001001400FB4054B10B503A9C2
:10072000044A029800F018F810BC5DF814FB0000B1
:10073000290E00081000002002E008C8121F08C19E
:10074000002AFAD170477047002001E001C1121F52
:10075000002AFBD1704700002DE9FF4F8DB00F46F6
:100760000546002606E025280BD0DDE90F1290474C
:100770006D1C761C28780028F5D111B03046BDE8F4
:10078000F08F0024A246A1460122EC4900E0044378
:1007900015F8013F203B02FA03F00842F7D1287810
:1007A0002A2810D06FF02F022878A0F130010929F3
:1007B00014D80AEB8A0102EB410144F0020400EB79
:1007C000010A6D1CF0E701CF5FEA000A03D544F48B
:1007D0000054CAF1000A44F002046D1C28782E2847
:1007E00017D115F8010F44F004042A280ED06FF039
:1007F0002F022878A0F1300109290AD809EB8901D4
:1008000002EB410100EB01096D1CF2E757F8049B74
:100810006D1C28786C280FD006DC4C2817D068286F
:100820000DD06A2814D104E0742810D07A280FD192
:100830000DE044F400140AE044F4801401E044F4B0
:1008400040146978814202D104F580146D1C6D1C3E
:100850002A786E2A1FD00CDC632A31D004DC002AEF
:100860008BD0582A11D1A3E0642A68D0692A0CD110
:1008700065E0732A2ED004DC6F2A73D0702A04D16D
:100880009BE0752A6FD0782A6ED01046DDE90F12F2
:100890009047761C50E1C4F30250022806D003288A
:1008A00009D0042801CF09D0066045E101CFF11736
:1008B000C0E9006140E101CF06803DE106703BE107
:1008C00017F8040B8DF8000000208DF80100EB46AE
:1008D000012003E057F804BB4FF0FF3061074FF0F1
:1008E000000102D40DE008F10101884649450FDA04
:1008F0008045F8DB1BF808100029F4D108E008F166
:10090000010188468142FADB1BF808100029F6D164
:10091000DDE90F23AAEB08008146214600F036F9F5
:10092000304400EB080604E0DDE90F121BF8010B70
:100930009047B8F10108F7D221464846F7E00A216E
:10094000C4F302534FF0000B0891022B04D001CFE7
:10095000C117032B09D00AE0FF1D27F00707F7E8AE
:10096000020108E032E01FE020E000B2C117042BD2
:1009700001D140B2C117031E71F1000307DA4FF035
:10098000000CD0EB0C006CEB01012D2302E02305E1
:1009900004D52B238DF82430012303E0E30701D095
:1009A0002023F7E7984658E00A2110E010210EE0D6
:1009B00010204FF0000B08900CE010214FF0000BBE
:1009C00044F004044FF00809089103E008214FF0B7
:1009D000000B0891C4F30253022B04D001CF002175
:1009E000032B06D006E0FF1D27F00707F7E80201FA
:1009F00003E080B2042B00D1C0B24FF000082307FF
:100A00002BD5702A07D0DDF820C08CF0100C5CEAE2
:100A10000B0C05D00EE040238DF82430012308E0B4
:100A200050EA010306D030238DF824308DF82520BC
:100A300002239846DDF820C08CF0080C5CEA0B0C11
:100A40000BD150EA010301D1630706D530238DF89D
:100A500024304FF00108A9F10109582A04D038A226
:100A60000B9208AA0A920BE03AA2F9E75B46089AB1
:100A7000FFF7A6FB0B9B9B5C0A9A521E0A9213700F
:100A800050EA0102F2D10A98ADEB000000F1200B10
:100A9000600702D524F4803401E04FF00109D94504
:100AA00002DDA9EB0B0000E0002000EB0B0141444C
:100AB0000890AAEB010AE00306D4DDE90F232146E2
:100AC000504600F063F806444FF0000908E009A919
:100AD00011F80900DDE90F12904709F10109761CB0
:100AE000C145F4DBE0030CD5DDE90F232146504678
:100AF00000F04CF8064404E0DDE90F123020904786
:100B0000761C0899481E08900029F5DC08E00A9830
:100B10000A990078491C0A91DDE90F129047761C6A
:100B2000BBF10001ABF1010BF1DC21465046DDE9E0
:100B30000F2300F019F806446D1C1BE6092801007C
:100B40003031323334353637383961626364656643
:100B50000000000030313233343536373839414205
:100B600043444546000000002DE9F04104460025BD
:100B70001E461746880404D405E039462020B047B5
:100B80006D1C641EF9D52846BDE8F0812DE9F041C1
:100B9000044600251E469046C80301D5302700E0D4
:100BA0002027880404D505E041463846B0476D1C2F
:100BB000641EF9D52846BDE8F08110B5A02000F0EC
:100BC00081F918B100F028FA002010BD012010BDF5
:100BD00001B502E00098401E009000980028F9D16D
:100BE00008BD2DE9F04105460C46164600F0F4F923
:100BF000A02000F0BFF900F025FA68B9E0B200F0DB
:100C0000B9F900F01FFA38B900F0E6F9A12000F0B8
:100C1000B1F900F017FA20B100F0FEF90020BDE8AC
:100C2000F0810024771E0BE000F07CF92855BC42CF
:100C300002D000F00BF901E000F05AF9641CA4B2F4
:100C4000B442F1D300F0E8F90120E8E770B5ADF562
:100C5000007DFFF7B2FF00282FD0002040AD2854C0
:100C6000401C80B2FF28FAD94FF48074224600213C
:100C700040A800F09FF8002824D020A0FFF74CFDEA
:100C80002248FFF7A5FF224600216846FFF7A9FF8B
:100C900000281CD01EA0FFF73FFD00246E46285DF3
:100CA000315D814218D021A0FFF736FD21A0FFF76A
:100CB00033FD00200DF5007D70BD27A0FFF72CFD52
:100CC0000020F7E72AA0FFF727FD0020F2E72CA07D
:100CD000FFF722FD0020EDE72DA0FFF71DFDE0430B
:100CE000000702D12CA0FFF717FD641CA4B2FF2C53
:100CF000D5D92AA0FFF710FD0120DBE7D0B4656548
:100D000070726F6DB3C9B9A6210D0A00FFFF0F0005
:100D1000B6C1656570726F6DB3C9B9A62CCAFDBE48
:100D2000DDC8E7CFC2A3BA0D0A0000003078253035
:100D300032582000B4EDCEF33A454550524F4DB6EF
:100D4000C1B3F6D3EBD0B4C8EBB5C4CAFDBEDDB2B7
:100D5000BBD2BBD6C2000000C3BBD3D0BCECB2E256
:100D6000B5BDB4AED0D0454550524F4D210D0A000F
:100D7000D0B4656570726F6DB3F6B4ED210D0A00E5
:100D8000B6C1656570726F6DB3F6B4ED210D0A00E2
:100D900020253032580000000D0A00006565707291
:100DA0006F6DB6C1D0B4B2E2CAD4B3C9B9A60D0A48
:100DB000000000002DE9F04780460E4691460025D0
:100DC0004FF47A7729E00DB1700716D100F024F9BD
:100DD000002400F001F9A02000F0CCF800F032F976
:100DE00018B1641CA4B2BC42F3D3BC420CD0F0B224
:100DF00000F0C0F800F026F930B918F8050000F04E
:100E0000B9F800F01FF920B100F006F90020BDE8A4
:100E1000F087761CB6B26D1CADB24D45D3D300F051
:100E2000FBF80120F3E7000070B50446064DE1B27F
:100E30002846FFF723FC80212846FFF7B9FB00284E
:100E4000F9D0204670BD00000010014070B50E4D75
:100E50004FF4007421462846FFF76CFA00F042F880
:100E6000661031462846FFF767FA00F03BF8314636
:100E70002846FFF75FFA00F035F821462846BDE81E
:100E80007040FFF759BA0000000402401CB5012170
:100E90000220FFF785FA4FF44070009002208DF891
:100EA000050001208DF804008DF8060000208DF863
:100EB000070069460248FFF7E8F900F0ADF81CBDED
:100EC0000004024010B50446FFF7E0FF00F084F88C
:100ED000204600F04FF800F0B5F8044600F09CF80A
:100EE000204610BD0020401CC0B22828FBD370470C
:100EF00070B50B4C4FF400712046FFF71DFAFFF759
:100F0000F1FFA51529462046FFF716FAFFF7EAFF7D
:100F100029462046FFF70EFABDE87040FFF7E2BF12
:100F2000000402402DE9F04100240025104E4FF44A
:100F300000784FF480776006040E39463046FFF79C
:100F4000FBF9FFF7CFFF41463046FFF7ECF908B158
:100F5000641CE4B239463046FFF7ECF9FFF7C2FFF4
:100F60006D1CEDB2082DE6D32046BDE8F0810000EF
:100F7000000402402DE9F04105460024154E4FF4CF
:100F800080774FF40078280604D541463046FFF7B5
:100F9000D3F903E041463046FFF7CCF9FFF7A2FF53
:100FA00039463046FFF7C8F9FFF79CFF394630460F
:100FB000FFF7C0F9072C03D141463046FFF7BCF9D3
:100FC0006806050EFFF78EFF641CE4B2082CDAD326
:100FD000BDE8F0810004024070B50E4D4FF400747E
:100FE00021462846FFF7A8F9661031462846FFF744
:100FF000A3F9FFF777FF21462846FFF79BF9FFF794
:1010000071FF31462846FFF795F9BDE87040FFF7BC
:1010100069BF00000004024070B5094D4FF4007430
:1010200021462846FFF786F961102846FFF784F924
:10103000FFF758FF21462846BDE87040FFF77CB90E
:101040000004024070B5104D4FF40074214628464C
:10105000FFF772F9FFF746FF661031462846FFF7A3
:101060006BF9FFF73FFF21462846FFF75CF908B10F
:10107000012400E0002431462846FFF75BF9FFF722
:1010800031FF204670BD000000040240FFF758F910
:101090000F4C4FF04008A4F8008080252580A71C45
:1010A000A6153E80FFF7F0FA0AA0FFF735FB11A066
:1010B000FFF732FBFFF7CAFD012804D0A7F8008034
:1010C00025802680FEE7A4F800803D802680F9E791
:1010D00018140240BBB6D3ADCAB9D3C3D2B0BBF06B
:1010E00053544D333246343037BFAAB7A2B0E5A1CE
:1010F000A30A0000D5E2CAC7D2BBB8F6493243CD35
:10110000E2C9E8284154323443303229B6C1D0B460
:10111000B2E2CAD4C0FDB3CC0A0000003C11000802
:1011200000000020140000003807000850110008DB
:10113000140000200404000048070008000000001C
:10114000010203040102030406070809000000006D
:040000050800018965
:00000001FF
