:020000040800F2
:10000000180400209D010008E30200088502000892
:10001000E1020008E501000879070008000000007F
:10002000000000000000000000000000C503000800
:10003000E701000800000000E502000809060008CA
:10004000B7010008B7010008B7010008B7010008B0
:10005000B7010008B7010008B7010008B7010008A0
:10006000B7010008B7010008B7010008B701000890
:10007000B7010008B7010008B7010008B701000880
:10008000B7010008B7010008B7010008B701000870
:10009000B7010008B7010008B7010008B701000860
:1000A000B7010008B7010008B7010008B701000850
:1000B000B7010008B7010008B7010008B701000840
:1000C000B7010008B7010008B7010008B701000830
:1000D000B701000869060008B7010008B701000869
:1000E000B7010008B7010008B7010008B701000810
:1000F000B7010008B7010008B7010008B701000800
:10010000B7010008B7010008B7010008B7010008EF
:10011000B7010008B7010008B7010008B7010008DF
:10012000B7010008B7010008B7010008B7010008CF
:10013000B7010008B7010008B7010008B7010008BF
:10014000B7010008B7010008B7010008B7010008AF
:10015000B7010008B7010008B7010008B70100089F
:10016000B7010008B7010008B7010008B70100088F
:10017000B7010008B7010008B7010008B70100087F
:10018000B7010008B7010008DFF80CD000F018F83C
:100190000048004769090008180400200648804705
:1001A00006480047FEE7FEE7FEE7FEE7FEE7FEE75C
:1001B000FEE7FEE7FEE7FEE70D06000889010008FE
:1001C000064C074D06E0E06840F0010394E80700A4
:1001D00098471034AC42F6D3FFF7DAFF3C0A000828
:1001E0005C0A0008FEE770472DE9F0410022012774
:1001F0004FF0030C07FA02F50B682B40AB422CD1F1
:10020000066853000CFA03F4A64306600E79D0F892
:1002100000809E4046EA080606600E79012E01D055
:10022000022E12D18668A64386604E79D0F80880E7
:100230009E4046EA080686604668AE4346604568CA
:100240008E799640B6B235434560C568A543C56012
:10025000CC799C40C3681C43C460521C102AC9D38B
:10026000BDE8F08110B54B07DB0E9A40C90800EBE2
:100270008100016A0F249C40A1430162016A11437D
:10028000016210BDFEE700002DE9FC4101212020A4
:1002900000F02AF84024009401208DF80400002189
:1002A0008DF806108DF807008DF805100B4F694684
:1002B0003846FFF799FF8026009669463846FFF7D3
:1002C00093FFA500009569463846FFF78DFF034868
:1002D0001830048006800580BDE8FC8100140240CF
:1002E000FEE7704770470000054A002903D01168F7
:1002F000014311607047116881431160704700002D
:1003000030380240054A002903D0116801431160CA
:100310007047116881431160704700004438024003
:1003200070B5244B196801F00C01234C00291ED034
:10033000224E04291DD008291DD00460196801F03F
:10034000F00109091E4A545C0168E14041601C68E3
:1003500004F4E054A40A145D21FA04F484601B68D8
:1003600003F460435B0BD25CD140C16070BD04609C
:10037000E4E70660E2E70F4A121F1168C1F38055F7
:10038000116801F03F0135B1B6FBF1F11468C4F317
:100390008814614305E0B4FBF1F11468C4F38814D8
:1003A00061431268C2F30142521C5200B1FBF2F1E8
:1003B0000160C3E7083802400024F40040787D0162
:1003C00000000020704700000CB50022019200924E
:1003D0002749086840F4803008604FF4A04308685B
:1003E00000F4003000900198401C0190009810B972
:1003F00001989842F3D10868800302D5012000904B
:1004000000E000920098012831D11948403002687C
:1004100042F0805202601748026842F44042026093
:100420001348083002680260026842F40042026029
:10043000026842F4A0520260021F0F4B13600A6868
:1004400042F080720A600A689201FCD50B4A40F2C1
:1004500005711160016821F003010160016841F03C
:10046000020101600168C1F381010229FAD10CBDCA
:10047000003802400070004019544007003C024020
:1004800010B511A000F0C2F916A000F0BFF91EA02F
:1004900000F0BCF924A000F0B9F92AA000F0B6F9E8
:1004A0002FA000F0B3F935A000F0B0F93AA000F0A9
:1004B000ADF940A000F0AAF945A000F0A7F9BDE809
:1004C00010404AA000F0A2B9202020B4AEBFDAD676
:1004D000B8C1EEBFD8D6C6524742B5C6CAB5D1E9F3
:1004E000200A0000CAB9D3C3B5C455534152543190
:1004F000B2CECAFDCEAA3A20313135323030203862
:100500002D4E2D31200A0000D6B8C1EE2D2D2D2DF7
:100510002D2D2D2D2D2D2D2D2D2D2D2D2DB2CAB561
:10052000C6D1D5C9AB0A00002020312D2D2D2D2D8F
:100530002D2D2D2D2D2D2D2D2D2D2D2D2D2D2DBA5E
:10054000EC200A002020322D2D2D2D2D2D2D2D2D8E
:100550002D2D2D2D2D2D2D2D2D2D2DC2CC200A00F4
:100560002020332D2D2D2D2D2D2D2D2D2D2D2D2DCF
:100570002D2D2D2D2D2D2DC0B6200A002020342DFF
:100580002D2D2D2D2D2D2D2D2D2D2D2D2D2D2D2D9B
:100590002D2D2DBBC6200A002020352D2D2D2D2DD3
:1005A0002D2D2D2D2D2D2D2D2D2D2D2D2D2D2DD7D1
:1005B000CF200A002020362D2D2D2D2D2D2D2D2D37
:1005C0002D2D2D2D2D2D2D2D2D2D2DC7E0200A006B
:1005D0002020372D2D2D2D2D2D2D2D2D2D2D2D2D5B
:1005E0002D2D2D2D2D2D2DB0D7200A002020382D7A
:1005F0002D2D2D2D2D2D2D2D2D2D2D2D2D2D2D2D2B
:100600002D2D2DC3F0200A007047000010B51248B0
:10061000016841F4700101601048016841F0010176
:1006200001600E4A00210832116002680C4B1A402A
:100630000260031D0B4A1A60026822F480220260E5
:1006400006480C300160FFF7BFFE03494FF0006021
:100650008039086010BD000088ED00E000380240DD
:10066000FFFFF6FE1030002410B5054C204600F0C8
:100670007BF801462046BDE8104000F079B8000044
:1006800000100140002904D0818941F4005181818A
:100690007047818921F40051818170470246002012
:1006A00012880A4200D00120704700007FB504463E
:1006B0000D46208A20F44051E88808432082A08912
:1006C00041F20C618843A9882A8911436A8902434F
:1006D0001143A181A08A20F44071A8890843A08217
:1006E0006846FFF71DFE1E48844202D01D48844222
:1006F00001D1039800E00298A189090408D500EB14
:10070000C00101EB001029684900B0FBF1F007E0DF
:1007100000EBC00101EB001029688900B0FBF1F08B
:100720006422B0FBF2F109010B096FF018056B436D
:1007300000EB8300A3891D044FF0320307D503EBC0
:10074000C000B0FBF2F000F00700084306E003EB46
:100750000010B0FBF2F000F00F00084320817FBDD5
:1007600000100140001401408088C0F30800704769
:10077000C1F3080181807047FEE7000010B586B024
:1007800001210846FFF7B0FD4FF4007004900120EE
:100790008DF8170002208DF815008DF81400194C03
:1007A00004A92046FFF720FD2115049104A9204645
:1007B000FFF71AFD072209212046FFF753FD072204
:1007C0000A212046FFF74EFD01211020FFF79AFD78
:1007D0004FF4E13000900020ADF80400ADF80600C1
:1007E000ADF80800ADF80C000C20ADF80A00064C7E
:1007F00069462046FFF75AFF01212046FFF742FFD6
:1008000006B010BD00000240001001400FB4054BBF
:1008100010B503A9044A029800F017F810BC5DF85F
:1008200014FB0000410900081400002002E008C881
:10083000121F08C1002AFAD170477047002001E05A
:1008400001C1121F002AFBD170472DE9F84F9946CC
:10085000924688460546002706E025280AD05146DC
:100860004A4690476D1C7F1C28780028F5D13846F1
:10087000BDE8F88F002315F8011F18462E2915D161
:1008800015F8011F04232A290DD06FF02F022978B3
:10089000A1F13004092C09D800EB800002EB4000E4
:1008A00008446D1CF3E758F8040B6D1C2A78002AE5
:1008B000DDD0632A07D0732A0FD0104651464A462E
:1008C00090477F1C2AE018F8042B8DF800200021A7
:1008D0008DF801106E46012103E058F8046B4FF0CB
:1008E000FF315A074FF0000401D409E0641C844230
:1008F0000BDA8C42FADB325D002AF7D105E0641C8A
:100900008C42FCDB305D0028F9D1274404E016F866
:10091000010B51464A469047641EF8D26D1CA3E76E
:1009200010B5064C20212046FFF7B8FE0028F9D06C
:100930002046BDE81040FFF717BF0000001001403F
:1009400070B50446064DE1B22846FFF711FF80213D
:100950002846FFF7A3FE0028F9D0204670BD00000E
:1009600000100140FFF7DCBFFFF78EFCFFF706FF2A
:10097000FFF786FDDFF8988040248025A8F1020764
:10098000A6002448FFF7EEFF00F0FF09494622A029
:10099000FFF73CFFA9F13109B9F1080F31D2DFE8C7
:1009A00009F004090E13191F252CA8F800403D80FA
:1009B0003E80E6E73C80A8F800503E80E1E73C80BE
:1009C0003D80A8F80060DCE7A8F80040A8F80050D7
:1009D0003E80D6E7A8F800403D80A8F80060D0E748
:1009E0003C80A8F80050A8F80060CAE7A8F80040CA
:1009F000A8F80050A8F80060C3E73C803D803E8026
:100A0000BFE70AA0FFF702FFFFF73AFDB9E70000D2
:100A10001A14024010000020CAE4C8EBB5C4D7D6AF
:100A2000B7FBCAC73A2025630A000000CAE4C8EB36
:100A3000D3D0CEF32121210A000000005C0A000877
:100A400000000020180000002C080008740A0008AC
:100A500018000020000400003C080008000000000E
:100A60000102030401020304060708090000000054
:040A70000000000082
:040000050800018965
:00000001FF
