:020000040800F2
:10000000182400209D010008D70300087903000888
:10001000D503000887020008E90900080000000075
:10002000000000000000000000000000E1070008E0
:100030008902000800000000D90300089D0800089C
:10004000B7010008B7010008B7010008B7010008B0
:10005000B7010008B7010008B7010008B7010008A0
:10006000B7010008B7010008B7010008B701000890
:10007000B7010008B7010008B7010008B701000880
:10008000B7010008B7010008B7010008B701000870
:10009000B7010008B7010008B7010008B701000860
:1000A000B7010008B7010008B7010008B701000850
:1000B000B7010008B7010008B7010008B701000840
:1000C000B7010008B7010008B7010008B701000830
:1000D000B7010008B7010008B7010008B701000820
:1000E000B7010008B7010008B7010008B701000810
:1000F000B7010008B7010008B7010008B701000800
:10010000B7010008B7010008B7010008B7010008EF
:10011000B7010008B7010008B7010008B7010008DF
:10012000B7010008B7010008B7010008B7010008CF
:10013000B7010008B7010008B7010008B7010008BF
:10014000B7010008B7010008B7010008B7010008AF
:10015000B7010008B7010008B7010008B70100089F
:10016000B7010008B7010008B7010008B70100088F
:10017000B7010008B7010008B7010008B70100087F
:10018000B7010008B7010008DFF80CD000F04AF80A
:1001900000480047610F00081824002006488047E7
:1001A00006480047FEE7FEE7FEE7FEE7FEE7FEE75C
:1001B000FEE7FEE7FEE7FEE7A10800088901000868
:1001C0002DE9F05F0546002092469B46884606468C
:1001D000814640241BE0284641464746224600F01F
:1001E00042F853465A46C01A914110D31146184658
:1001F000224600F029F82D1A67EB01084F462246E7
:100200000120002100F020F817EB00094E41201ECC
:10021000A4F10104DFDC484631462A464346BDE8E6
:10022000F09F0000064C074D06E0E06840F0010337
:1002300094E8070098471034AC42F6D3FFF7A8FFC4
:100240000C1000082C100008202A04DB203A00FAC9
:1002500002F1002070479140C2F1200320FA03F31D
:10026000194390407047202A04DB203A21FA02F01B
:100270000021704721FA02F3D040C2F120029140E0
:10028000084319467047FEE77047000070B50F4DF0
:100290004021284600F06CF8052000F057FA0C4C7D
:1002A0004FF6FF702060FF2000F050FAC00707D023
:1002B0002068401E2060401CF5D1032000F030FE75
:1002C0002846BDE87040402100F054B800180240B4
:1002D000100000202DE9F041002201274FF0030C0F
:1002E00007FA02F50B682B40AB422CD1066853008D
:1002F0000CFA03F4A64306600E79D0F800809E4005
:1003000046EA080606600E79012E01D0022E12D1AF
:100310008668A64386604E79D0F808809E4046EAFB
:10032000080686604668AE43466045688E7996400A
:10033000B6B235434560C568A543C560CC799C40DD
:10034000C3681C43C460521C102AC9D3BDE8F081A5
:1003500010B54B07DB0E9A40C90800EB8100016A1B
:100360000F249C40A1430162016A1143016210BD48
:100370004183704701837047FEE700002DE9FC418F
:100380000121202000F02AF84024009401208DF85B
:10039000040000218DF806108DF807008DF8051077
:1003A0000B4F69463846FFF795FF80260096694651
:1003B0003846FFF78FFFA500009569463846FFF7DE
:1003C00089FF03481830048006800580BDE8FC8161
:1003D00000140240FEE7704770470000054A0029FC
:1003E00003D01168014311607047116881431160A7
:1003F0007047000030380240054A002903D01168D8
:10040000014311607047116881431160704700001B
:100410004438024070B5244B196801F00C01234C9C
:1004200000291ED0224E04291DD008291DD00460A9
:10043000196801F0F00109091E4A545C0168E140A5
:1004400041601C6804F4E054A40A145D21FA04F429
:1004500084601B6803F460435B0BD25CD140C160D5
:1004600070BD0460E4E70660E2E70F4A121F1168FE
:10047000C1F38055116801F03F0135B1B6FBF1F1D0
:100480001468C4F38814614305E0B4FBF1F1146807
:10049000C4F3881461431268C2F30142521C520033
:1004A000B1FBF2F10160C3E7083802400024F40018
:1004B00040787D0100000020002904D0018841F02F
:1004C000400101807047018821F0400101807047A0
:1004D00070B5044600F072F90D4D40212846FFF733
:1004E00047FF202000F032F9C4F3074000F02EF956
:1004F000C4F3072000F02AF9E0B200F027F9402108
:100500002846FFF737FFBDE87040FFF7BFBE000089
:100510000018024010B500F087F8BDE8104000F068
:10052000EBB800002DE9F04105460E4617460024C1
:10053000DFF8608023E014F0FF0F1CD10CB105F54B
:10054000807540214046FFF715FFFFF79FFE00F042
:1005500035F940214046FFF70BFF022000F0F6F886
:10056000C5F3074000F0F2F8C5F3072000F0EEF8FD
:10057000E8B200F0EBF8305D00F0E8F8641CBC4233
:10058000D9DB40214046FFF7F5FEBDE8F041FFF71B
:100590007DBE0000001802402DE9F04104460D46E2
:1005A0001646114F40213846FFF7E2FE032000F0C7
:1005B000CDF8C4F3074000F0C9F8C4F3072000F0F9
:1005C000C5F8E0B200F0C2F8002404E0FF2000F01B
:1005D000BDF82855641CB442F8DB3846BDE8F0414C
:1005E0004021FFF7C7BE00000018024070B50D4C57
:1005F00040212046FFF7BCFEAB2000F0A7F8FF200B
:1006000000F0A4F8FF2000F0A1F8FF2000F09EF811
:10061000FF2000F09BF8054640212046FFF7AAFE88
:10062000284670BD001802401CB501214220FFF78A
:10063000D5FE1B4C052203212046FFF789FE05222B
:1006400004212046FFF784FE052211462046FFF7CD
:100650007FFE0821009102218DF804108DF805100D
:1006600000218DF806108DF8071069462046FFF727
:1006700031FE1021009169462046FFF72BFE202114
:10068000009169462046FFF725FE4020009001209A
:100690008DF8040069460348FFF71CFE1CBD0000EE
:1006A00000040240001802400246002012890A425B
:1006B00000D001207047808970478181704730B534
:1006C000028802F441530A884C88CD8822438C88E2
:1006D0002C4322430C8922434C8922438C89224398
:1006E000CC8922431A430280828B22F400628283E7
:1006F000098A018230BD000010B586B001210803CF
:10070000FFF77AFE0020ADF81000ADF80A00ADF852
:100710000C004FF48271ADF80610ADF80400ADF88E
:100720001200ADF80800ADF814004FF40070ADF8F9
:100730000E00054C01A92046FFF7C1FF012120460C
:10074000FFF7BAFE06B010BD003001402DE9F041C0
:100750000746184C4FF6FF752560174E03E02068DA
:10076000401E206058B102213046FFF79DFF00284F
:10077000F5D039463046FFF7A0FF256008E0BDE818
:10078000F041012000F0CCBB2068401E206058B131
:1007900001213046FFF788FF0028F5D03046FFF7EB
:1007A0008AFFC0B2BDE8F081BDE8F041022000F050
:1007B000B7BB0000100000200030014010B5074C0E
:1007C00040212046FFF7D4FD0620FFF7BFFF20465B
:1007D000BDE810404021FFF7CDBD000000180240E9
:1007E000704700000CB5002201920092274908686A
:1007F00040F4803008604FF4A043086800F40030F3
:1008000000900198401C0190009810B901989842FE
:10081000F3D10868800302D50120009000E0009227
:100820000098012831D119484030026842F08052C6
:1008300002601748026842F44042026013480830E0
:1008400002680260026842F400420260026842F4F8
:10085000A0520260021F0F4B13600A6842F08072C0
:100860000A600A689201FCD50B4A40F205711160DA
:10087000016821F003010160016841F0020101609B
:100880000168C1F381010229FAD10CBD0038024090
:100890000070004019544007003C024070470000BF
:1008A00010B51248016841F47001016010480168F8
:1008B00041F0010101600E4A002108321160026816
:1008C0000C4B1A400260031D0B4A1A60026822F4A6
:1008D0008022026006480C300160FFF783FF034965
:1008E0004FF000608039086010BD000088ED00E026
:1008F00000380240FFFFF6FE10300024002904D02B
:10090000818941F4005181817047818921F400512E
:10091000818170470246002012880A4200D00120DF
:10092000704700007FB504460D46208A20F44051F0
:10093000E88808432082A08941F20C618843A98895
:100940002A8911436A8902431143A181A08A20F4B4
:100950004071A8890843A0826846FFF75BFD1E48E6
:10096000844202D01D48844201D1039800E00298DD
:10097000A189090408D500EBC00101EB001029682A
:100980004900B0FBF1F007E000EBC00101EB001003
:1009900029688900B0FBF1F06422B0FBF2F1090193
:1009A0000B096FF018056B4300EB8300A3891D044E
:1009B0004FF0320307D503EBC000B0FBF2F000F0BC
:1009C0000700084306E003EB0010B0FBF2F000F074
:1009D0000F00084320817FBD00100140001401403A
:1009E000C1F3080181807047FEE7000010B586B0B2
:1009F00001210846FFF7F2FC4FF40070049001203B
:100A00008DF8170002208DF815008DF81400194C90
:100A100004A92046FFF75EFC2115049104A9204695
:100A2000FFF758FC072209212046FFF791FC072217
:100A30000A212046FFF78CFC01211020FFF7DCFC87
:100A40004FF4E13000900020ADF80400ADF806004E
:100A5000ADF80800ADF80C000C20ADF80A00064C0B
:100A600069462046FFF75EFF01212046FFF746FF5B
:100A700006B010BD00000240001001400FB4054B4D
:100A800010B503A9044A029800F018F810BC5DF8EC
:100A900014FB00003D0F00081400002002E008C80D
:100AA000121F08C1002AFAD170477047002001E0E8
:100AB00001C1121F002AFBD1704700002DE9FF4F32
:100AC0008DB00F460546002606E025280BD0DDE94F
:100AD0000F1290476D1C761C28780028F5D111B0B4
:100AE0003046BDE8F08F0024A246A1460122EC4921
:100AF00000E0044315F8013F203B02FA03F00842EE
:100B0000F7D128782A2810D06FF02F022878A0F18A
:100B10003001092914D80AEB8A0102EB410144F0A3
:100B2000020400EB010A6D1CF0E701CF5FEA000A46
:100B300003D544F40054CAF1000A44F002046D1CC9
:100B400028782E2817D115F8010F44F004042A281C
:100B50000ED06FF02F022878A0F1300109290AD8B1
:100B600009EB890102EB410100EB01096D1CF2E781
:100B700057F8049B6D1C28786C280FD006DC4C2895
:100B800017D068280DD06A2814D104E0742810D03A
:100B90007A280FD10DE044F400140AE044F48014E4
:100BA00001E044F440146978814202D104F58014D4
:100BB0006D1C6D1C2A786E2A1FD00CDC632A31D084
:100BC00004DC002A8BD0582A11D1A3E0642A68D013
:100BD000692A0CD165E0732A2ED004DC6F2A73D009
:100BE000702A04D19BE0752A6FD0782A6ED0104607
:100BF000DDE90F129047761C50E1C4F30250022841
:100C000006D0032809D0042801CF09D0066045E1A9
:100C100001CFF117C0E9006140E101CF06803DE15D
:100C200006703BE117F8040B8DF8000000208DF8EA
:100C30000100EB46012003E057F804BB4FF0FF3002
:100C400061074FF0000102D40DE008F10101884670
:100C500049450FDA8045F8DB1BF808100029F4D16C
:100C600008E008F1010188468142FADB1BF8081010
:100C70000029F6D1DDE90F23AAEB080081462146C1
:100C800000F036F9304400EB080604E0DDE90F120D
:100C90001BF8010B9047B8F10108F7D221464846EE
:100CA000F7E00A21C4F302534FF0000B0891022B26
:100CB00004D001CFC117032B09D00AE0FF1D27F094
:100CC0000707F7E8020108E032E01FE020E000B289
:100CD000C117042B01D140B2C117031E71F10003EB
:100CE00007DA4FF0000CD0EB0C006CEB01012D2368
:100CF00002E0230504D52B238DF82430012303E0E3
:100D0000E30701D02023F7E7984658E00A2110E0D6
:100D100010210EE010204FF0000B08900CE0102185
:100D20004FF0000B44F004044FF00809089103E071
:100D300008214FF0000B0891C4F30253022B04D09A
:100D400001CF0021032B06D006E0FF1D27F0070787
:100D5000F7E8020103E080B2042B00D1C0B24FF0EB
:100D6000000823072BD5702A07D0DDF820C08CF0AF
:100D7000100C5CEA0B0C05D00EE040238DF82430FB
:100D8000012308E050EA010306D030238DF8243017
:100D90008DF8252002239846DDF820C08CF0080C41
:100DA0005CEA0B0C0BD150EA010301D1630706D5B5
:100DB00030238DF824304FF00108A9F10109582A99
:100DC00004D038A20B9208AA0A920BE03AA2F9E7E3
:100DD0005B46089AFFF7F4F90B9B9B5C0A9A521E3C
:100DE0000A92137050EA0102F2D10A98ADEB0000AA
:100DF00000F1200B600702D524F4803401E04FF0AD
:100E00000109D94502DDA9EB0B0000E0002000EB51
:100E10000B0141440890AAEB010AE00306D4DDE986
:100E20000F232146504600F063F806444FF00009B6
:100E300008E009A911F80900DDE90F12904709F14E
:100E40000109761CC145F4DBE0030CD5DDE90F2375
:100E50002146504600F04CF8064404E0DDE90F124C
:100E600030209047761C0899481E08900029F5DC30
:100E700008E00A980A990078491C0A91DDE90F12E6
:100E80009047761CBBF10001ABF1010BF1DC214670
:100E90005046DDE90F2300F019F806446D1C1BE6EF
:100EA0000928010030313233343536373839616240
:100EB0006364656600000000303132333435363704
:100EC0003839414243444546000000002DE9F041D5
:100ED000044600251E461746880404D405E039461A
:100EE0002020B0476D1C641EF9D52846BDE8F0816E
:100EF0002DE9F041044600251E469046C80301D561
:100F0000302700E02027880404D505E04146384614
:100F1000B0476D1C641EF9D52846BDE8F08100007D
:100F200010B50446214602A0FFF7A8FD204610BDDB
:100F30004552524F523A25640A00000070B50446EB
:100F4000064DE1B22846FFF74BFD80212846FFF70A
:100F5000E1FC0028F9D0204670BD000000100140DF
:100F6000FFF70CFAFFF742FDFFF7D4FAFFF73EFB5D
:100F7000014618A0FFF782FD0020FFF7A9FA1AA08A
:100F8000FFF77CFD00201C4B55214FF48055195470
:100F9000401CA842FBDB2A4617490A20FFF7C2FA89
:100FA0002A4616490020FFF7F7FA00242E46134D73
:100FB00013A0295DFFF762FD641CB442F8DB1249FF
:100FC0004020088010488021801E0180811501800A
:100FD000FEE70000666C6173682049443A2030786F
:100FE000253032780A000000B2C1B3FDCDEAB3C9A2
:100FF0002121210A00000000180000201810002004
:1010000030782530327820001A1402402C10000865
:1010100000000020180000009C0A0008441000088E
:101020001800002000240000AC0A000800000000A6
:10103000010203040102030406070809000000007E
:0410400000000000AC
:040000050800018965
:00000001FF
